:400000000080002011000000790300007903000008B5044B1A6803F53F5302331A6000F0B3F900BFFA46004010B5054C237833B9044B13B10448AFF300800123237010BDD3
:400040003881FF1F00000000B00B0000084B10B51BB108490848AFF300800848036803B910BD074B002BFBD0BDE81040184700BF000000003C81FF1FB00B0000C880FF1FAC
:400080000000000008B562B600F058FB00F08EFB00F0EAFB00F0B4FA00F014FA0028FBD1F6E700BFFEE700BFF0B40022174611E050F82760F3B226F0FF0608E001EB42054C
:4000C00011F812406D78A5550132013BDBB2002BF4D10137172FEBD9F0BC70470E4B1B78DBB203F007010D4A11701B090132137010220B4B1A70002203F273631A70202244
:4001000003F25B231A70012290331A704422A3F2E5231A70704700BFCF0100496E580040FD51004008B50A46002100F038FD08BD38B50122264B1A801823264A13703321ED
:4001400002321180023213700222234B1A7008224FF040231A70032103F5007319701F4B1B78DBB21E490B701E4B1A8041F25122023B1A80002419250CE01B4B1B7803F053
:40018000010343EA440404F003044FF4F07000F0BFFC013D0DB1032CEFD115B90320FFF781FF124B4FF480721A8007221A7000220F490A704820023108701A700222033B59
:4001C0001A700C4A137843F00303137038BD00BF80400040824000400043004008010049A146004022420040254200400440004006400040A243004008B500F0C5FC08BD79
:40020000032807D8044B53F820201844017C13780B431370704700BFB40B0000032808D8044B53F820201844017C137823EA010313707047B40B000038B572B63B4A1378F8
:4002400043F00403137000240BE0394863001A19510001440A46098B5069FFF763FF0134E4B2072CF1D900240BE03149A3001819420088188022816C406CFFF7BDFF0134E7
:40028000E4B2002CF1D02B494FF09040FFF70CFF4FF44072284B1A8040F20312283B1A80264A03F52C430E331A60254A137843F0020313701032137843F002031370214CB5
:4002C000237843F040032370A2F58632513A137843F0100313700A221B491C48FFF78CFF08221B491B48FFF787FF08221A491B48FFF782FF08221A491A48FFF77DFF1A4A1E
:40030000137843F008031370184D61232B70FFF70FFF81232B700122154B1A70FFF7DEFE0E2221461348FFF767FF38BDE8460040B40B00006000004872580040040404C4D9
:4003400003500140A0430040BC050048C0510040C8050048F2510040D005004812510040D805004822510040224300400048004004000840B043004008B500F0D9FB0368A4
:400380000C2B00D1FEE7FEE708B5104E104D16E029686B68AC68002204E051F8040B43F8040B0432A242F8D1E868002203E0002143F8041B04328242F9D11035013E002EB4
:4003C000E6D100F0BBFBFFF75DFEFEE701000000640C000008B5104A104B1A60104A136843F40073136000230AE0032B03D80D4A52F8231000E00C490C4A42F82310013305
:400400002F2BF2D90A4B1A780A4B1A70074A0A4B1A60FFF711FF08BD0004FA050CED00E014ED00E000000000790300000080FF1FBC760040C080FF1F08ED00E010B500F0B5
:400440006FFB0446134A137843F02003137000F023FB00F047FA00F09DFA0F4A137843F010031370103A137843F01003137002F5A6520532137843F001031370204600F035
:4004800053FB0122054B1A60054A137843F08003137010BD94640040BB43004000E100E0766400400130C0B2012808D0C20800F0070101238B4002498A5C1342F2D070477C
:4004C000CC80FF1F024B187800F00100704700BF5D81FF1F08B50922044B1A70044A137843F040031370FFF78BFE08BD0E5000400E52004008B5FFF791FE044A137823F00F
:40050000400313700822024B1A7008BD0E5200400E50004010B5002404E02046FFF7EAFF0134E4B2002CF8D010BD00BF10B50E4A137803F0FC0313700C4B1B781B020C491B
:4005400021F81030723A12781343DB4321F81030FFF7D0FF002000F039FA064A137843F00103137010BD00BF76640040146400406081FF1F70580040024B187040081033BD
:40058000187070472564004010B50446C82000F01DFA0322034B1A70034B1C442079FFF7EBFF10BD56650040CC80FF1F38B50546FFF7EAFF084C237843F001032370074ABE
:4005C000137803F0FE0313702846FFF783FF237843F00203237038BD766400407058004008B5054B00221A70044A107081221A70FFF7DCFF08BD00BF5D81FF1F5C81FF1F96
:4006000010B500220A4B1A700A4CFF2323702078FFF748FF2070237813F0FF0F07D1044A137843F0010313702078FFF7BFFF10BD5D81FF1F5C81FF1F012805D1054A137884
:4006400003F0EF0313707047024A137843F01003137070477664004038B5FFF75BFF0220FFF7EAFF00F05CFA2E4A137843F0030313700132137843F00303137000F054FAEF
:400680004FF43442284B1A804FF6FF7420331C8007253E331D7000F043FA244A137843F003031370A2F58172137843F00303137000F03AFAFF231E4A147020321370403A6F
:4006C0001370E23A137030321370103A1370012403F1E02381331C601649002000F0ECF92946002000F0FCF900F0D2F92046FFF787FD0220FFF784FD0320FFF781FD0E4AEF
:40070000137843F00403137000F026F900F07EF9002000F091F9042000F09EF9002000F055F938BD96640040266400409665004026650040950800007664004008B5054B95
:400740001B7823B9FFF788FF0122024B1A70FFF775FE08BD5481FF1F084B1A5C084B33F81010084B23F81010002307490B5407490B540521064B9954704700BF040C000012
:400780006081FF1F6C81FF1F6881FF1F6481FF1F5881FF1F10B50446FFF722FFFFF792FE0028FBD12046FFF7D7FF10BD10B5002404E02046FFF7EEFF0134E4B2002CF8D0BA
:4007C00010BD00BF70B50546224B33F81020224B33F810309A4203D3D41AA4B2012602E09C1AA4B2002686B9142C0ED91B4B5B5D042B06D92846FFF7AFFF0022174B5A5555
:4008000017E00133154A535513E0012C02D9132C0FD876B91248415D41EA03210A44D31AC3F30F210C4A22F81510435500220B4B5A55012C09D946B1FF2C03D9FF22094BF8
:400840005A5570BD074B5C5570BD0022054B5A5570BD00BF6081FF1F6C81FF1F7481FF1F6881FF1F6481FF1F10B500240DE0E20804F0070101238B4005498A5C134202D032
:400880002046FFF79FFF0134E4B2002CEFD010BDCC80FF1F10B5114B1878FFF747FE104B1B7813F0800F05D00D4A137803F0FE03137010BD094C2078FFF7F4FD20702378EB
:4008C00013F0FF0F03D12078FFF770FE10BD044A137803F0FE03137010BD00BF5C81FF1F5D81FF1F054A137843F0020313701032137843F002031370704700BFA7430040BA
:400900000F490B7803F0FC0200F0030313430B7001280AD10B4B1B78DBB20B4A13700B4B1B78DBB2013213707047094B1B78DBB2054A1370074B1B78DBB2013213707047CA
:4009400041580040110100493246004015010049AF010049B701004908B50020FFF7D0FF0B4B1A7842F020021A701A7802F0FB021A701A7842F008021A7003F28E231A782F
:4009800002F0E7021A701A7842F010021A7008BD41580040054A137843F0080313701032137843F008031370704700BFA8430040054B1A7802F0FD021A701A7800F0020029
:4009C00010431870704700BF2C580040014B1870704700BF835B0040094B1B7803F00C035B08084A127812F0040F00D0013303F1924393F83831DBB2034A1370704700BFA9
:400A00002C5800402D5800400B46004008B51422084B1A700133002018701A7842F004021A701A7842F002021A70FFF7C1FFFFF7D3FF08BD2C58004008B5064B1A7802F0B1
:400A4000FB021A701A7800F0040010431870FFF7C3FF08BD2D58004008B5064B1A7802F0F3021A701A7800F00C0010431870FFF7B3FF08BD2C58004010B5002404E020466E
:400A8000FFF7CCFB0134E4B2032CF8D910BD00BF08B5FFF7F1FF08BD054A137843F0010313701032137843F001031370704700BFA243004001BE704770B504460E46074B79
:400AC0001D681F2802D90020FFF7F4FF04F01F04103455F8240045F8246070BD08ED00E038B504460D46072902D90020FFF7E2FF1F2C02D90020FFF7DDFF04F01F0000F10F
:400B0000604000F564406D01EDB2057038BD00BF0230800803D000BF01380046FCD17047EFF3108072B6704780F31088704700BF014B1868704700BF3481FF1F0E4B70B592
:400B40001E460E4C0025E41AA410A54204D056F8253098470135F8E700F072F8084B094C1E46E41AA4100025A54204D056F8253098470135F8E770BD4C0C00004C0C000022
:400B80004C0C0000540C000010B5431E0A44914204D011F8014B03F8014FF8E710BD03460244934202D003F8011BFAE770470000000000001C510040FC510040CB5A004092
:400BC0009B5A00404010011000510040100030510040400000000140001000140140800200170140000500400140000A004C01400002005001402000801601403C0500480D
:400C0000800000000000000003000000C8000000065200400E520040165200401E520040265200402E520040365200407E52004040000000010000000E5000404300000067
:400C4000F8B500BFF8BC08BC9E4670474D000000D5030000F8B500BFF8BC08BC9E46704729000000780C0000C880FF1F70000000400000000000000000000000010000008D
:400C80000B00000000000000000000000000000000000000000000000000000000000000000000003C0C0000000000000000000000000000000000000000000000000000E1
:400CC000000000000000000000000000000000000000000000000000000000000000000000000000D480FF1F00000000000000000000000000000000000000000000000082
:400D000000000000000000000000000000000000000000000000000000000000000000000000000000000000000000000000000000000000000000000000000000000000B3
:400D40000000000000000000000000000000000000000000000000000000000000000000000000000000000000000000000000000000000000000000000000000000000073
:400D80000000000000000000000000000000000000000000000000000000000000000000000000000000000000000000000000000000000000000000000000000000000033
:400DC00000000000000000000000000000000000000000000000000000000000000000000000000000000000000000000000000000000000000000000000000000000000F3
:020000040003F7
:0200000480007A
:40000000045200400664004005650040020301405B0401403A0501405F0601403E070140020B014066140140441501401C1601404517014002400140024101400242014005
:4000400002430140024501400346014003470140044801400549014004500140015101400E40600861087C0204FF05FF14FF24FF841F873806FF16FF26FF840F877297017A
:40008000AB010415070309010C3F103C13041A3F1B03202A210226302D03300C3230340335073E153F10403241044502470648115602580459045A045B045E085F01610CF7
:4000C00062F0630C650C670C6840694C6A406B4C6C906D586F0C80018210840285018620881F89018C378E08900E921198199A269B029C1FA024A440AA40B00FB240B30111
:40010000B410B502B620B908BE40C014C504C650C720C829C9FFCAFFCBFFCC02CD20CF05D110D608D804D904DA04DB0FDF01E040E140E280E480E680010802020301042177
:40014000050806A00701080109200D220F01106011021302171A18101A401B101DBA1F0220042718284131103202371038083A203C203F0440144240464248204F045004B7
:40018000541056025C80640172807A407C01840197019880B480C0F5C2DAC47CCA09CC25CE66D097D610D810DE81E002032806010714080C0A100C010D0C0E020F10101CB5
:4001C000111C1340150219141B281C141D021E081F01210322022314251D2610270229202B082D1C2E0C30043104320333033560361837183E043F104003410449FF4AFF94
:400200004BFF4C024D0C4EF85217580459045A045B045F01624863A168F06AF06CF06EF084088A028D018E0496019E02A201B008B202B301B401B604BE15BF04C003C1046F
:40024000C7A0C9FFCAFFCBFFCC03CD0CCEF4D418D804D904DA04DB04DC01DD10DF01E248E3A1E8F0EAF0ECF0EEF00020010802010420060A07100A010B200D020E021280CE
:400280001542170418161A401D021EA21F402204242025402602270A2E282F4235103642370438803D823E04410A450A464051015A025F0360066D406E046F0476028E40F8
:4002C0009420970199109B109E60A188A312A501A642C0E7C295C4B8CAF0CCF0CED8D0C3D601D80CE640E002EA100102022003110527060309270C0C0D200E7110DC12228C
:40030000181019011A401B0E1D041F11241026AC28142C092ED030E0321F3320350737183A223F404025410146CE470B481C49FF4AFF4BFF4EF04F44500C54015804590491
:400340005A045B045C115D115F0166C06A406B02800C82138D808F1592139308960899739B0C9C119E0EA12AA20CA344A411A503A606A704AA10AD73AF04B010B330B50F84
:40038000B60FB7C0B988BA80BB20BE01BF04C002C640C9FFCA07CBFFCC40CD20CEF0CF05D008D804D904DA04DC11DD01DF01E040E1A8E240E32001080240030204800502B0
:4003C000070209100B800E010FA2100912201520171919281B031E401FC02001210822102404262027292D022F923210334034013620370139943A013FC0400442014720AD
:400400004B405048511053105510564057505A485B128140821091949208948195409A019B409D28A508A802A980AA01C01DC2BAC477CAD0CCACCE1FD02CD208D60F05036C
:4004400009031D021F012D012F0231034013410646204760482859045A045C105F01610C62F0630C650C670C6840694C6A406B4C6C906D586F0C000401A003C008110A90D9
:400480000B0410A811401240180419511A31228123042740281029102A402B802D80300232583740382A39403D103E044005410845804708481049604A084F2053105501E3
:4004C0005620590169946A0470BC84018508900292089480960397209B089D089E21A180A310A410A501A680A812B210C00FC20EC40FCA1FCC1FCE6FD05ED22CD601EA802C
:400500003020CC10A820EA805504D4408D04A5041102C4088610B501EA083A109A10CE080710A320B320C0207B20A320AB10DE40E82000030A0310031A03000302000004BA
:4005400073180C007F08000001600000002463001FFF60005C1C23E10000006308400000041C00E20CE700180310000010602C000F1F4C8000802820000001002306050023
:40058000010CE00009FFFFFF62A0F0410C000000000002130404040411110001000000000000400200103010001010120000000000000000000000000000000008000008ED
:4005C00008000800000000000200000000001000000B4B0000000000000202000000000000000000000000000000000000000000000000000000000000000000000000007F
:4006000000000000000000000000000000000000000000000000000000000000000000000000000000000000000000000000000000000000000000000000000000000000BA
:40064000000000000000000000000000000000000000000000000000000000000000000000000000000000000000000000000000000000000000000000000000000000007A
:40068000000000000000000000000000000000000000000000000000000000000000000000000000000000000000000000000000000000000000000000000000000000003A
:4006C00000000000000000000000000000000000000000000000000000000000000000000000000000000000000000000000000000000000000000000000000000000000FA
:0200000490006A
:0400000000004005B7
:0200000490105A
:04000000BC90ACAF55
:0200000490303A
:02000000E422F8
:0200000490402A
:4000000000000000000000000000000000000000000000000000000000000000000000000000000000000000000000000000000000000000000000000000000000000000C0
:400040000000000000000000000000000000000000000000000000000000000000000000000000000000000000000000000000000000000000000000000000000000000080
:400080000000000000000000000000000000000000000000000000000000000000000000000000000000000000000000000000000000000000000000000000000000000040
:4000C0000000000000000000000000000000000000000000000000000000000000000000000000000000000000000000000000000000000000000000000000000000000000
:0200000490501A
:0C00000000012E16106900012E1BF48B6D
:00000001FF