:400000000080002011000000C1040000C104000080B500AF024A034B1B68136000F05AFABC760040FA46004010B5054C237833B9044B13B10448AFF300800123237010BD39
:400040006881FF1F00000000541E0000084B10B51BB108490848AFF300800848036803B910BD074B002BFBD0BDE81040184700BF000000006C81FF1F541E0000C880FF1FDE
:400080000000000080B500AF62B600F0B7FA00F0D3FAFCE780B582B000AF786039603A680021786801F0CDFE00BF0837BD4680BD80B584B000AFF860B9607A607A68B96879
:4000C000F86801F0B3FE00BF1037BD4680BD00BF80B483B000AF0346FB71FEE780B487B000AF7860396000233B6100237B6127E07B699B007A6813441B68BB60BB68FB7312
:40010000BB6823F0FF03BB6014E03B695B003A6813441B781A46BB68134419463B695B003A6813445B780B703B6901333B61FB7B013BFB73FB7B002BE7D17B6901337B618D
:400140007B69192BD4D900BF1C37BD4680BC704780B582B000AF304B01221A802F4B18221A702F4B02221A704FF0402308221A702C4B03221A702C4B2C4A1278D2B21A70ED
:400180002B4B08221A802B4B41F251221A800023FB7019237B6014E0FB785B00DAB2264B1B78DBB203F00103DBB21343DBB203F00303FB704FF4F07000F00AFB7B68013B49
:4001C0007B607B68002B02D0FB78032BE4D17B68002B02D10320FFF77BFF184B4FF480721A80164B07221A70154B00221A70154B48221A70114B00221A70134B02221A70C0
:40020000124A124B1B78DBB243F00103DBB2137000BF0837BD4680BD80400040824000400043004000420040A146004008010049224200402042004025420040044000406F
:40024000064000400840004001400040A243004080B483B000AF114B1B78FB71104AFB7903F00703DBB213700E4AFB791B09DBB213700D4B80221A700C4B00221A700C4BA0
:4002800020221A700B4B09221A700B4B44221A7000BF0C37BD4680BC704700BFCF0100496E5800406F5800402D51004070580040D35A0040005B00407658004080B483B001
:4002C00000AF0346FB71FB79092B0ED8FB79094A52F82330FA79074951F822201178FA790548825C0A43D2B21A7000BF0C37BD4680BC7047581E0000801E000080B483B065
:4003000000AF0346FB71FB79092B10D8FB790A4A52F82330FA79084951F822201178FA790648825CD243D2B20A40D2B21A7000BF0C37BD4680BC7047581E0000801E0000F0
:4003400080B582B000AF72B6444A444B1B78DBB243F00403DBB213700023FB7113E0FA7913465B0013445B003D4A13443B603B681A683B689B889BB219461046FFF78AFE79
:40038000FB790133FB71FB79072BE8D935494FF09040FFF7A3FE344B4FF440721A80334B40F203221A80324B324A1A60324A324B1B78DBB243F00203DBB213702F4A2F4B5A
:4003C0001B78DBB243F00203DBB213702C4A2C4B1B78DBB243F04003DBB21370294A294B1B78DBB243F01003DBB21370082226492648FFF75DFE0A2225492648FFF758FEF9
:40040000052225492548FFF753FE082224492548FFF74EFE082224492448FFF749FE244A234B1B78DBB243F00803DBB21370214B61221A70FFF78CFE1E4B81221A701E4BAB
:4004400001221A70FFF704FF0E220D491B48FFF72FFE00BF0837BD4680BD00BFE84600408C1E000068000048705800404C580040580C0140040400440350014013500140F0
:40048000A0430040C2430040180300480251004020030048C05100402C030048CB51004034030048125100403C03004822510040224300400048004004000840B043004047
:4004C00080B500AF01F086FC03461B680C2B00D1FEE7FEE780B586B000AF224B7B61224B3B61204B7B6135E03B691B68FB603B695B68BB603B699B683B6000237B600CE00F
:40050000FB681A68BB681A60BB680433BB60FB680433FB607B6804337B607A683B689A42EED13B69DB683B6000237B6008E0BB6800221A60BB680433BB607B6804337B6029
:400540007A683B689A42F2D13B6910333B617B69013B7B617B69002BC6D101F041FCFFF791FDFEE701000000401F000080B582B000AF184B184A1A60184A184B1B6843F467
:400580000073136000237B600FE07B68032B04D8134A7B6852F8233000E0124B12497A6841F822307B6801337B607B682F2BECD90E4B1B78DAB20E4B1A700E4B0A4A1A6023
:4005C000FFF7BEFE0C4B00221A6000BF0837BD4680BD00BF0CED00E00004FA0514ED00E000000000C10400000080FF1FBC760040C480FF1F08ED00E0C080FF1F80B500AF4E
:400600000B4801F089F90B4B01221A7000F0DCFB00F0F2FD00F0F0FD00F05AF9054A3F213F2000F089F900F04BFC00BF80BD00BF9981FF1F9881FF1F80B500AF00F06CFC0E
:400640000346002B21D1124801F0F6F900F088FE104800F027F80E4801F086F90E4B4FF400421A6000BF0D4B5B78DBB2042BFAD100F040F9034603F01003002BF3D1084BB4
:400680004FF400421A6000F01BFC00BF80BD00BF9981FF1F9C81FF1F00E100E09881FF1F80E100E0B0B584B000AF78600023FB7318E0FC7BFB7B184601F03AF803461B0250
:4006C0001DB2FB7B184601F033F803461B0A9BB21BB22B431BB29AB27B6823F81420FB7B0133FB73FB7B002BE3D000F01DFF0023FB730BE0FB7BFA7B0849895C7A681344AC
:400700000A4683F82C20FB7B0133FB73FB7B002BF0D000BF1037BD46B0BD00BF2482FF1F80B483B000AF0346FB7101BE00BF0C37BD4680BC704700BF80B584B000AF03468E
:400740003960FB710F4B1B68FB60FB791F2B02D90020FFF7E5FFFB7903F01F0310339B00FA6813441B68BB60FB7903F01F0310339B00FA6813443A681A60BB6818461037E7
:40078000BD4680BD08ED00E080B582B000AF03460A46FB711346BB71BB79072B02D90020FFF7BEFFFB791F2B02D90020FFF7B8FFFB7903F01F0303F1604303F56443BA7918
:4007C0005201D2B21A7000BF0837BD4680BD00BF0230800803D000BF01380046FCD17047EFF3108072B6704780F31088704700BF80B500AF154B01221A70154B81221A70FC
:40080000144B04221A70144B03221A70134B00221A70134B4FF400421A6007210F20FFF7B3FF10490F20FFF787FF0F4B00221A700E4B00221A700E4B00221A800D4B002297
:400840001A800D4B00221A8000BF80BDD6490040C8490040CA490040DB490040DC49004080E100E0A5090000E081FF1FDA81FF1FDC81FF1FD881FF1FE281FF1F80B582B041
:4008800000AFFFF7ADFF0346FB710E4A0D4B1B78DBB243F00403DBB213700B4A0A4B1B78DBB243F00403DBB21370FB791846FFF79BFF064B4FF400421A6000BF0837BD4651
:4008C00080BD00BFA5430040B543004000E100E080B500AF064B1B78002B04D1FFF788FF034B01221A70FFF7C9FF00BF80BD00BF8481FF1F80B483B000AF0C4B4FF400420D
:400900001A600B4B1B78FB71094B1B78DBB203F01003DAB2064B1A70064B4FF400421A60FB7918460C37BD4680BC704780E100E0DA81FF1F00E100E080B483B000AF0346D2
:400940003A60FB800B46BB800F4B4FF400421A603B68002B08D00D4A3B6813600C4AFB8813800C4ABB8813800B4B00221A800B4B00221A800A4B4FF400421A6000BF0C3758
:40098000BD4680BC704700BF80E100E0E481FF1FDE81FF1FE281FF1FDC81FF1FD881FF1F00E100E080B400AF974B1B78DAB2974B1A70964B1B7803F00803002B42D0944B2F
:4009C0001B78DBB203F00103002B24D0904A914B1B689149098889B20B441B78DBB21370894B14221A708C4B1B889AB28B4B1A808A4B1B889BB201339AB2884B1A80884BA1
:400A00001B78DBB243F01103DAB2854B1A70854B08221A70D9E07C4B10221A70804B1B78DBB243F01203DAB27D4B1A707D4B01221A707D4A7C4B1B78DBB243F01003DBB2A2
:400A40001370C2E0714B1B7803F00103002B00F0BC80744B1B78DBB2013B072B00F2A88001A252F823F000BF890A0000A30A0000B10B0000EF0A0000B10B0000B10B000021
:400A8000B10B0000390B0000614B1B78DBB29AB2664B1A805C4B10221A70624B02221A7093E0624B1B881B029AB2594B1B78DBB29BB213439AB25D4B1A805C4B1A885C4B04
:400AC0001B889BB29A420ED24F4B10221A70574B1A88514B1A80554B1A88504B1A80514B04221A7071E0484B00221A706DE04B4B1B889AB24F4B1B889BB29A4218D2444B76
:400B00001B78DAB24C4B1A703F4B10221A70414B1B68424A128892B21344474A12781A703E4B1B889BB201339AB23C4B1A804CE0354B00221A7048E0344B1B7803F0020316
:400B4000002B23D1354B1B889AB2394B1B889BB29A4214D22E4A2F4B1B683049098889B20B441B78DBB21370274B04221A702B4B1B889BB201339AB2284B1A8025E0244B7C
:400B8000FF221A70204B04221A701EE0204BFF221A701D4B00221A70214B1B78DBB223F01003DAB21E4B1A701E4B00221A700CE01C4B00221A70184B00221A80174B00225F
:400BC0001A80114B00221A7000BF0F4B1B78DBB203F02003002B12D0114B1B78DBB223F01003DAB20E4B1A700E4B00221A700E4A0D4B1B78DBB223F01003DBB2137000BF1C
:400C0000BD4680BC704700BFD74900408681FF1FD8490040E481FF1FDC81FF1FD881FF1FDA81FF1FE081FF1FD64900408881FF1FDE81FF1FE281FF1F8A81FF1F80B582B098
:400C400000AF00F077F92E4B07221A70FFF7C8FD0346FB712B4A2B4B1B78DBB243F00303DBB21370284A284B1B78DBB243F00303DBB21370FB791846FFF7B6FD234BFF221D
:400C80001A70234BFF221A70224BFF221A70224BFF221A70214BFF221A70214BFF221A70204B01221A6020490020FFF745FD07210020FFF769FD01F059F80720FFF7FEFA6F
:400CC0000820FFF7FBFA0920FFF7F8FA174A174B1B78DBB243F00403DBB2137000F0DEFE00F06CFF002000F0C7FF042000F0E4FF002001F001F800BF0837BD4680BD00BFA8
:400D00008C6400409B6400409A6400402B6400404B6400400B6400402A6400405A6400404A64004080E100E0A91700007B64004080B582B000AFFFF753FD0346FB711C4A48
:400D40001B4B1B78DBB243F02003DBB2137001F027F800F0D7FE00F055FF164A154B1B78DBB243F01003DBB21370134A124B1B78DBB243F01003DBB21370104A0F4B1B78C1
:400D8000DBB243F00103DBB21370FB791846FFF72BFD0B4B01221A600A4A0A4B1B78DBB263F07F03DBB2137000BF0837BD4680BD9C640040BB430040AB43004070580040DC
:400DC00000E100E07B64004080B500AF064B1B78002B04D1FFF732FF034B01221A70FFF7A7FF00BF80BD00BF8B81FF1F80B485B000AF0346FB71FB790133FB71FB79072B21
:400E000012D0FB79DB08FB73FB7903F00703012202FA03F3BB73FB7B074AD25CBB7B1340DBB2002BE7D000E000BFFB7918461437BD4680BC704700BFCC80FF1F80B584B026
:400E400000AF0346FB71FB790B4AD35CFB73FB790A4AD35C184600F04FFF094AFB7B0949CB5C1370FB79084AD35C184600F05EF900BF1037BD4680BD081F0000D080FF1FDB
:400E80005B640040D880FF1FDC80FF1F80B582B000AF0346FB71084B00221A70074AFB791370054B81221A70FB79184600F0C4F800BF0837BD4680BDE981FF1FE881FF1FE9
:400EC00080B500AF124B00221A70124BFF221A70104B1B78DBB21846FFF788FF03461A460C4B1A700B4B1B78DBB2062B0DD8084B1B78DBB243F00103DAB2054B1A70054B31
:400F00001B78DBB2184600F097F800BF80BD00BFE981FF1FE881FF1F80B400AF044B1B78DBB203F00103DBB21846BD4680BC7047E981FF1F80B582B000AF0023FB7106E0AD
:400F4000FB79184600F040F8FB790133FB71FB79062BF5D900BF0837BD4680BD80B584B000AF0346FB71FB79134AD35CFB73FB79124AD35CBB73FB79114A52F823300922B3
:400F80001A70FB7B0F2B01D10723FB73FB7B0D4A52F82330FA7B0B4951F822201178BA7B0A43D2B21A70FB791846FFF787F900BF1037BD4680BD00BFD81E0000E01E000075
:400FC000BC1E0000E81E000080B584B000AF0346FB71FB79144AD35CFB73FB79134AD35CBB73FB791846FFF789F9FB7B0F2B01D10723FB73FB7B0E4A52F82330FA7B0C490E
:4010000051F822201178BA7BD243D2B20A40D2B21A70FB79074A52F8233008221A7000BF1037BD4680BD00BFD81E0000E01E0000E81E0000BC1E000080B582B000AF034628
:40104000FB71FB791846FFF7F9FE104A0F4B1B78DBB243F00103DBB213700D4A0C4B1B78DBB223F00103DBB21370FB791846FFF775FF064A054B1B78DBB243F00203DBB274
:40108000137000BF0837BD4680BD00BF7B6400407058004080B582B000AF0346FB711E4A1D4B1B78DBB223F00303DBB21370FB791A4A1278D2B292B2120291B2184A22F8A8
:4010C0001310184B1B78DBB29AB2FB79F979144830F811100A4391B2114A22F81310FB79FA790F4931F81220D24391B20C4A22F81310FB791846FFF767FF002000F0FCFD8F
:40110000094A094B1B78DBB243F00103DBB2137000BF0837BD4680BD7B6400401A640040EC81FF1F0A6400407058004080B483B000AF0346FB71064AFB791370054AFB7970
:401140005B08DBB2137000BF0C37BD4680BC70472D6400403D64004080B485B000AF0346FB71FB79114AD35CFB73FB79FA79104931F812100F4A22F81310FB790E4A00210B
:40118000D154FB790D4A002122F81310FB7B002B06D0FB7B013BFA7B0949895C094AD15400BF1437BD4680BC704700BF081F0000EC81FF1F0C82FF1F1C82FF1FFC81FF1F20
:4011C000FC80FF1F8C81FF1F80B582B000AF0346FB71FB791846FFF759FE00BFFFF79CFE0346002BFAD1FB791846FFF7B5FF00BF0837BD4680BD00BF80B582B000AF002300
:40120000FB7106E0FB791846FFF7DEFFFB790133FB71FB79062BF5D900BF0837BD4680BD80B586B000AF0346FB71FB79454AD35C7B757B7D444A32F813307B82FB79434A10
:4012400032F813303B82FB79414A32F813303A8A9A4209D3FB793E4A32F813303A8AD31AFB8201237B7508E0FB79394A32F813203B8AD31AFB8200237B757B7D002B18D127
:40128000FB8A142B15D9FB79324AD35C042B08D9FB791846FFF760FFFB792E4A0021D1543AE0FB792B4AD25C0132D1B2294AD15432E0FA8A7B8A9A4205D9FB8A132B2BD85A
:4012C0007B7D002B28D1FB79214A32F813301B02FB60FB79204AD35C1A46FB681343FB603B8AFA681344FB60FB79194A32F813301A46FB689B1AFB60FB79FA68120A91B268
:40130000134A22F81310FB79FA68D1B2124AD154FB79104A0021D154FA8A7B8A9A4208D97B7D002B05D0FB790C49FA8A21F8132004E0FB79094A002122F8131000BF183737
:40134000BD4680BD081F0000EC80FF1FEC81FF1F0C82FF1F2882FF1F1C82FF1FFC81FF1F80B582B000AF0023FB7118E0FB79DB08BB71FB7903F00703012202FA03F37B7194
:40138000BB790A4AD25C7B791340DBB2002B03D0FB791846FFF744FFFB790133FB71FB79062BE3D900BF0837BD4680BDCC80FF1F80B487B000AF0346FB71FB79DB08BB7527
:4013C000FB7903F00703012202FA03F37B75FB79394AD35C3B753B7D384A32F813307B823B7D374A32F813303B823B7D354AD35CFB733B7D002B06D10223FB75FB7D324A83
:401400000121D15402E03B7D013BFB75BB7D2F4AD25C7B7D1340DBB2002B19D0FB792C4A32F8133019467A8A3B8AD31A994233DABB7DBA7D2549895C7A7DD243D2B20A4064
:40144000D1B2224AD154FB7D1F49FA7BCA5423E0FB791F4A32F8133019467A8A3B8A1344994215DDFB7D184AD35C012B08D8BB7DBA7D1649895C7A7D0A43D1B2134AD1543B
:40148000FB7D114AD25C013AD1B20F4AD15403E0FB7D0D49FA7BCA54BB7D0C4AD25C7B7D1340DBB2002B01D0012300E0002318461C37BD4680BC7047081F0000E480FF1FA4
:4014C000F480FF1FFC80FF1F8C81FF1F2482FF1FFC81FF1F80B584B000AF0346FB71FB790F4AD35CFB73FB790E4AD25CFB7B13447B730023BB73FB7B1846FFF759FF03468E
:40150000002B01D00123BB73FB7B0133FB73FA7B7B7B9A42EFD3BB7B18461037BD4680BD101F0000141F000080B582B000AF0023BB710023FB710BE0FB791846FFF7CAFF4F
:401540000346002B01D00123BB71FB790133FB71FB79022BF0D9BB7918460837BD4680BD80B485B000AF0346FB710B46BB711346BB80FF23BB730023BB81FB795B00154A8C
:401580001344BB600023FB731AE0FB7B5B00BA6813441B88BA889A420FD2FB7B5B00BA6813441B88BA899A4207D2FB7BBB73FB7B5B00BA6813441B88BB81FB7B0133FB7378
:4015C000FA7BBB799A42E0D3BB7B18461437BD4680BC7047FC81FF1F90B488B000AF0446084611461A462346FB710346BB710B467B7113467B800023FB770023BB77BB79D0
:401600005B00494A1344BB61FB79002B02D0FB79013BFB77FB790133BB77FB795B00BA6913441A88414B5A80FB79002B0AD13F4B00221A80BB7F5B00BA6913441A883B4B94
:401640009A801DE0FA797B79013B9A420AD1FB7F5B00BA6913441A88344B1A80334B00229A800DE0FB7F5B00BA6913441A882F4B1A80BB7F5B00BA6913441A882B4B9A8002
:401680002A4B1B883A8D9A4207D2284B1A883B8DD31A9AB2254B1A8002E0244B00221A80224B5A883B8DD31A9AB2204B5A801F4B9B883A8D9A4207D21C4B9A883B8DD31A8D
:4016C0009AB21A4B9A8002E0184B00229A80174B9B881A46154B1B88D31A7B61134B1B881A46124B5B881344104A928813443B617B691B021A463B6992FBF3F3FA7912028F
:4017000013443B61B7F902301A463B6902FB03F33B613B6903F5FE431B0CFB73FB7B18462037BD4690BC7047FC81FF1F9081FF1F90B587B002AF0346FB71FB79164AD35CEF
:401740007B73FB79154AD35C3B73FB79144A32F81320397B7B7B1846FFF702FF0346FB72FB7AFF2B0FD04FF4C854FB790D4A32F813303A7B797BF87A00932346FFF72CFF9A
:401780000346FB8102E04FF6FF73FB81FB8918461437BD4690BD00BF101F0000141F0000E480FF1FEC80FF1F80B500AF1A4B1B78DBB21846FFF76EFC184B1B78DBB25BB2EE
:4017C000002B08DA154B1B78DBB223F00103DAB2124B1A701DE0104B1B78DBB21846FFF705FB03461A460C4B1A700B4B1B78DBB2062B06D8084B1B78DBB21846FFF71CFC18
:4018000007E0064B1B78DBB223F00103DAB2034B1A7000BF80BD00BFE881FF1FE981FF1F80B584B000AF78607B681B78FB73FB7B314AD35CBB73FB7B7A685278D1B22F4ACB
:40184000D154BB7B7A689278D1B22D4AD1547B68DA78D2B21B79DBB21B021343BB81BB7BBA89120211B2BA89120A92B212B20A4312B291B2234A22F813107B685A79D2B28A
:401880009B79DBB21B021343BB81BB7BBA89120211B2BA89120A92B212B20A4312B291B2194A22F813107B68DA79D2B21B7ADBB21B021343BB81BB7BBA89120211B2BA890F
:4018C000120A92B212B20A4312B291B20F4A22F81310BB7B7A68527AD1B20D4AD154FB7B7A68927AD1B20B4AD154FFF785FC00BF1037BD4680BD00BF081F0000D080FF1F85
:40190000D880FF1FE480FF1FEC80FF1FF480FF1FFC80FF1FDC80FF1F80B483B000AF78607B6804221A707B685A7800225A709A78002242F03E029A707B68012283F83020DC
:401940007B6893F83120002242F0190283F8312093F83220002242F0400283F8322000BF0C37BD4680BC704780B485B000AF786000BF7B681B78DBB2042BFAD10023FB73F8
:4019800049E0FB7BFA7B294931F81220120211B2FA7B264830F81220120A92B212B20A4312B291B27A685B0013440A46A3F80520FB7BFA7B1E4931F81220120211B2FA7B1D
:4019C0001B4830F81220120A92B212B20A4312B291B27A6808335B0013440A46A3F80320FB7BFA7B134931F81220120211B2FA7B104830F81220120A92B212B20A4312B200
:401A000091B27A680C335B0013440A46A3F80920FB7B0133FB73FB7B062BB2D97B6884221A7000BF1437BD4680BC7047EC81FF1F0C82FF1FFC81FF1F80B584B000AF78605D
:401A40007B685A78D2B29B78DBB21B021343FB81FB891B021AB2FB891B0A9BB21BB213431BB20D4A934212D17B683333BB60B868FFF7D6FE7B685A7800225A709A78002219
:401A800042F03E029A707B68002283F8302000BF1037BD4680BD00BF3E80FFFF80B500AF002000F049F8154A144B1B78DBB243F02003DBB21370114A104B1B78DBB223F0B7
:401AC0000403DBB213700D4A0C4B1B78DBB243F00803DBB213700A4A094B1B78DBB223F01803DBB21370064A054B1B78DBB243F01003DBB2137000BF80BD00BF4258004002
:401B0000D75A004080B400AF094A094B1B78DBB243F00403DBB21370064A064B1B78DBB243F00403DBB2137000BFBD4680BC7047A7430040B743004080B483B000AF0346BD
:401B4000FB711749164B1B78DBB25BB223F003035AB297F9073003F003035BB213435BB2DBB20B70FB79012B0AD10E4B0E4A1278D2B21A700D4B0E4A1278D2B21A7009E0B9
:401B8000084B0C4A1278D2B21A70084B0A4A1278D2B21A7000BF0C37BD4680BC704700BF4258004034460040120100493546004016010049B1010049B901004980B500AF01
:401BC0000E4B14221A700E4B00221A700C4A0C4B1B78DBB243F00403DBB21370084A084B1B78DBB243F00203DBB21370002000F023F800F091F800BF80BD00BF2858004084
:401C00002958004080B400AF094A094B1B78DBB243F00403DBB21370064A064B1B78DBB243F00403DBB2137000BFBD4680BC7047A8430040B843004080B483B000AF03466A
:401C4000FB710C4A0B4B1B78DBB223F00203DBB213700849074B1B78DAB2FB7903F00203DBB21343DBB20B7000BF0C37BD4680BC704700BF2858004080B582B000AF034615
:401C8000FB710C4A0B4B1B78DBB223F00403DBB213700849074B1B78DAB2FB7903F00403DBB21343DBB20B7000F036F800BF0837BD4680BD2958004080B582B000AF03462B
:401CC000FB710C4A0B4B1B78DBB223F00C03DBB213700849074B1B78DAB2FB7903F00C03DBB21343DBB20B7000F016F800BF0837BD4680BD2858004080B483B000AF0346FC
:401D0000FB71044AFB79137000BF0C37BD4680BC704700BF825B004080B483B000AF104B1B78DBB203F00C035B08FB710D4B1B78DBB203F00403DBB2002B02D0FB79013318
:401D4000FB71094AFB7903F1924303F594731B78DBB2137000BF0C37BD4680BC704700BF28580040295800400A46004080B500AF00F002F800BF80BD80B582B000AF0023FA
:401D8000FB7106E0FB791846FEF7B8FAFB790133FB71FB79092BF5D900BF0837BD4680BD80B400AF094A094B1B78DBB243F00103DBB21370064A064B1B78DBB243F00103A7
:401DC000DBB2137000BFBD4680BC7047A2430040B2430040014B1868704700BF6081FF1F0E4B70B51E460E4C0025E41AA410A54204D056F8253098470135F8E700F08EF8A8
:401E0000084B094C1E46E41AA4100025A54204D056F8253098470135F8E770BD281F0000281F0000281F0000301F000010B5431E0A44914204D011F8014B03F8014FF8E782
:401E400010BD03460244934202D003F8011BFAE770470000000000000C5100400C5100400C5100400C5100400C5100400C5100400C510040035B0040D35A0040935A00402D
:401E8000204001020408100101100000C84900401900305100404000F0510040100000000140001000140140000800400140000A004C014000020050014020000550004087
:401EC00006500040005000400150004002500040035000400450004000000000000000002040010204081000065200400E520040165200401E520040265200402E520040EB
:401F0000365200407E5200400102000000000000020001000501010000194300F8B500BFF8BC08BC9E4670474D0000006D050000F8B500BFF8BC08BC9E467047290000007A
:401F4000501F0000C880FF1FA0000000C8000000000000007F0000002B293031292622003F3F1F00020203030303030054007C00420000002A002D00210000000000120033
:401F8000090000000105050000000000000000000000000000000000000000000000000000000000000000001A1F00000000000000000000000000000000000000000000D4
:401FC000000000000000000000000000000000000000000000000000000000000000000000000000000000000081FF1F000000000000000000000000000000000000000042
:4020000000000000000000000000000000000000000000000000000000000000000000000000000000000000000000000000000000000000000000000000000000000000A0
:402040000000000000000000000000000000000000000000000000000000000000000000000000000000000000000000000000000000000000000000000000000000000060
:402080000000000000000000000000000000000000000000000000000000000000000000000000000000000000000000000000000000000000000000000000000000000020
:4020C00000000000000000000000000000000000000000000000000000000000000000000000000000000000000000000000000000000000000000000000000000000000E0
:020000040003F7
:0200000480007A
:4000000003520040086400400101014001050140030901404F0A0140410B0140490C01402F0D0140010F0140031501400117014001190140031B01400640014001410140A7
:40004000044201400143014004460140034701400348014010490140074C0140054D01400350014002510140067F600164030AFF0BFF0DFF1AFF1BFF2AFF2BFF8C1FE60165
:40008000EA02AC02B480EC024046410545064720482156085A045B0F5F01610C62F0630C650C670C6840694C6A406B4C6C906D586F0C8220837F8424852A870189558A041C
:4000C0008C249004917892209427961098099B609C249E0BA203A402A608A91FAA04AB80AC03B003B118B204B3E0B418B501B620B706BE11BF55C032C104C522C660C760AA
:40010000C82BD207D804D904DA04DB04DF01E10CE2F0E30CE50CE70CE840E94CEA40EB4CEC90ED58EF0C0488051006800D020E210F0814021502161017101C411D201E21C2
:400140001F082605270A2E202F08340236203D203E013F0840404520470A4A254D024F09510155105612588060026C026D046E106F147901908891019401950496119701F2
:4001800099109A809D029E229F04A102A402A708AE04C0F0C2F0C4F0CA20CCA0CEE0D0E1D20CD608D808DE010009010202060301040F0504070209040A200C1F0D070E20A9
:4001C00012101301140E15011601170218201A101C021D0320012301240726082702283029032C042F04300F320F3304343035035602580459045B045E085F018401880479
:400200008A029002920494049806A401B006B401B820C063C504C650C702C819C9FFCAFFCBFFCC02CD20CF05D110D804DA04DF01E040E140E280E480E680001002100489BF
:40024000070409200A500C020D200E200F011020150116A2172018801A441C081D321EA02418250827282C022D042E022F083502364037083C183E4141084828500852106B
:4002800076807C109408C0F6C2FEC4F4CAF0CCD0CEF0D002D204DE208004E008E401EA05E201E201E008E401EA05324073208240CC10DC80E6809F203E10AF20CE20EA401D
:4002C000961000103B20C002CE08AF10B410EA0880089610E2801220164070087710822086409B10A008AA10AB10C430DC80DE20E010E480EAA0132817047B107F40830446
:40030000C40EDE03831087409780A710AB2800010C010E01000303C000007F00000000000300000003000300000300000002000000000000000B0B00000000000000000089
:4003400000008000000000000000000000000000000000000000000000000000000000000000000000000000000000000000000000000000000000000000000000000000FD
:40038000000000000000000000000000000000000000000000000000000000000000000000000000000000000000000000000000000000000000000000000000000000003D
:4003C00000000000000000000000000000000000000000000000000000000000000000000000000000000000000000000000000000000000000000000000000000000000FD
:4004000000000000000000000000000000000000000000000000000000000000000000000000000000000000000000000000000000000000000000000000000000000000BC
:40044000000000000000000000000000000000000000000000000000000000000000000000000000000000000000000000000000000000000000000000000000000000007C
:0200000490006A
:0400000000004005B7
:0200000490105A
:04000000BC90ACAF55
:0200000490303A
:02000000575A4D
:0200000490402A
:4000000000000000000000000000000000000000000000000000000000000000000000000000000000000000000000000000000000000000000000000000000000000000C0
:400040000000000000000000000000000000000000000000000000000000000000000000000000000000000000000000000000000000000000000000000000000000000080
:400080000000000000000000000000000000000000000000000000000000000000000000000000000000000000000000000000000000000000000000000000000000000040
:4000C0000000000000000000000000000000000000000000000000000000000000000000000000000000000000000000000000000000000000000000000000000000000000
:0200000490501A
:0C00000000012E16106900012E2367C3BA
:00000001FF