:400000000080002011000000050600000506000080B500AF024A034B1B68136000F024FBBC760040FA46004010B5054C237833B9044B13B10448AFF300800123237010BDE2
:400040006081FF1F0000000014380000084B10B51BB108490848AFF300800848036803B910BD074B002BFBD0BDE81040184700BF000000006481FF1F14380000C880FF1F3A
:400080000000000080B582B000AF62B60121002000F07EFB002002F0E7FC02F0F5FC02F06BFE02F0CBFD00F041F80C4B1B78012B05D10B4800F01AF8084B00221A7002F01F
:4000C000CDFD0346FB80FB8832220649064802F06DFF054800F00AF8E3E700BF8C81FF1F0082FF1F183800008082FF1F80B582B000AF786000BF00F093FF0346002BFAD030
:400100007B683F3300221A707B683E3321221A70786802F077FF03469BB21946786800F01BFF00BF0837BD4680BD00BF80B582B000AF2B4B1B78002B0AD100F0CDFC034652
:40014000002B49D000F0B4FE254B01221A7043E000F054FF0346002B3ED000F073FF0346FB71FB790D2B02D0FB790A2B10D11D4B1B881A461C4B002199541B491B4802F0DC
:4001800039FF184B00221A80194B01221A7023E0FB79082B02D0FB797F2B0AD1114B1B88002B06D00F4B1B88013B9AB20D4B1A8012E00C4B1B883E2B03D9212000F002FF88
:4001C0000AE0084B1B885A1C91B2064A11801946054AFB795354FFE700BF0837BD4680BD8E81FF1F9081FF1FA081FF1F0082FF1F8C81FF1F80B582B000AF786039603A6809
:400200000021786802F0C9FE00BF0837BD4680BD80B584B000AFF860B9607A607A68B968F86802F0AFFE00BF1037BD4680BD00BF80B483B000AF0346FB71FEE780B487B041
:4002400000AF7860396000233B6100237B6127E07B699B007A6813441B68BB60BB68FB73BB6823F0FF03BB6014E03B695B003A6813441B781A46BB68134419463B695B00A8
:400280003A6813445B780B703B6901333B61FB7B013BFB73FB7B002BE7D17B6901337B617B69202BD4D900BF1C37BD4680BC704780B582B000AF3F4B81221A803E4B182292
:4002C0001A703E4B00221A803D4B1B221A7004223C493D48FFF79CFF3C4B06221A703C4B52221A703B4B3C4A1278D2B21A703B4B40F619121A803A4B41F251221A80002354
:40030000FB7019237B6014E0FB785B00DAB2354B1B78DBB203F00103DBB21343DBB203F00303FB704FF4F07002F0AEFD7B68013B7B607B68002B02D0FB78032BE4D17B682F
:40034000002B02D10320FFF773FF274B4FF480721A80254B07221A70244B00221A70244B48221A70204B00221A70224B00221A70214B02221A70214B04221A70204A204BD7
:400380001B78DBB243F00303DBB213701D4A1D4B1B78DBB243F00103DBB213701A4A1A4B1B78DBB263F07F03DBB2137000BF0837BD4680BD8040004082400040844000408C
:4003C00086400040D8040048004100400043004000420040A14600400F01004922420040204200402542004004400040064000400840004009400040014000400B400040B9
:40040000A2430040A1430040A043004080B582B000AF214B1B78FB71204B1B78BB71204B1B787B711F4AFB7903F00703DBB213701D4AFB791B09DBB21370184ABB7943F0F9
:400440000303DBB21370164A7B7943F00303DBB21370164BA0221A70154B80221A70154B20221A70144B80221A70144B20221A70134B4FF481721A800A2002F033FA084AE5
:400480007B791370054ABB7913700E4B44221A7000BF0837BD4680BDCF010049F8460040F94600406E5800406F5800403D510040095900409C5A0040285B00402B5B0040E6
:4004C000465B00407658004080B582B000AF72B63A4B61221A70FFF7EBFE384B01221A70374A374B1B78DBB243F00403DBB213700023FB7113E0FA7913465B0013445B0066
:40050000304A13443B603B681A683B689B889BB219461046FFF76EFEFB790133FB71FB79082BE8D928494FF09040FFF787FE274A264B1B78DBB243F00203DBB21370244AD1
:40054000234B1B78DBB243F00203DBB21370214A204B1B78DBB243F04003DBB213701E4A1D4B1B78DBB243F01003DBB213700A221A491B48FFF74CFE08221A491A48FFF7CC
:4005800047FE0A2219491A48FFF742FE082219491948FFF73DFE194A184B1B78DBB243F00803DBB21370FFF731FF0E2209491448FFF72EFE00BF0837BD4680BD0048004092
:4005C000E846004038380000840000480350014013500140A0430040C2430040B0040048F0510040BC04004812510040C404004820510040D0040048325100402243004044
:40060000B043004080B500AF02F090FC03461B680C2B00D1FEE7FEE780B584B000AF78600F4B1A687B6813441A460E4BD31A802B09DC0B4B1B68FB60094B1A687B68134407
:40064000074A136007E002F071FC02460C2313604FF0FF33FB60FB6818461037BD4680BDCC80FF1FA883FF1F80B586B000AF224B7B61224B3B61204B7B6135E03B691B68D0
:40068000FB603B695B68BB603B699B683B6000237B600CE0FB681A68BB681A60BB680433BB60FB680433FB607B6804337B607A683B689A42EED13B69DB683B6000237B60B0
:4006C00008E0BB6800221A60BB680433BB607B6804337B607A683B689A42F2D13B6910333B617B69013B7B617B69002BC6D102F023FCFFF7C7FCFEE7010000007C3A00003A
:4007000080B582B000AF184B184A1A60184A184B1B6843F40073136000237B600FE07B68032B04D8134A7B6852F8233000E0124B12497A6841F822307B6801337B607B686E
:400740002F2BECD90E4B1B78DAB20E4B1A700E4B0A4A1A60FFF7B8FE0C4B00221A6000BF0837BD4680BD00BF0CED00E00004FA0514ED00E000000000050600000080FF1FD6
:40078000BC760040C480FF1F08ED00E0C080FF1F80B582B000AF03460A46FB711346BB71094B1B78002B04D100F010F8064B01221A70BA79FB791146184600F0D9F800BFD9
:4007C0000837BD4680BD00BF9281FF1F80B582B000AF02F061FB0346FB71544A534B1B78DBB243F00103DBB21370514A504B1B78DBB243F00103DBB213704E4B01221A70EB
:400800004D4B02221A704D4A4C4B1B78DBB203F07F03DBB21370002002F064F8484A484B1B78DBB223F00603DBB21370454A454B1B78DBB223F02003DBB21370404A404B26
:400840001B78DBB243F00103DBB21370012002F049F8282002F046F83B4A3B4B1B78DBB203F07F03DBB21370374A374B1B78DBB223F04003DBB21370314A314B1B78DBB2F5
:4008800043F00203DBB21370022002F02BF82C4A2B4B1B78DBB243F00403DBB213702B4B00221A702A4B00221A70FB79184602F0F7FA0721172002F051F82649172002F039
:4008C00025F80721182002F049F82349182002F01DF80721152002F041F82049152002F015F80721012002F039F81D49012002F00DF80721022002F031F81A49022002F0B2
:4009000005F80721032002F029F81749032001F0FDFF07210C2002F021F814490C2001F0F5FF00BF0837BD4680BD00BFA5430040B54300409D60004009600040106000402C
:400940009443004012600040F851004084600040856000401D18000005110000111800002917000071170000BD1700002918000080B582B000AF03460A46FB711346BB71EB
:400980002E4AFB7913702E4B00221A702D4B00221A702D4B00221A702C4B00221A702C4B00221A702B4B00221A702B4B00221A702A4B4FF400021A60284B4FF080721A607F
:4009C000264B4FF400121A60244B02221A60234B04221A60214B08221A60BB79002B02D0012B09D011E01E4A1D4B1B78DBB223F00103DBB2137011E0194A194B1B78DBB276
:400A000043F00103DBB2137008E0154A144B1B78DBB243F00103DBB2137000BF114B03221A70114B80221A70012002F02DFA0F4B04221A7000BF0837BD4680BDD982FF1F15
:400A4000DC82FF1FF882FF1FFB82FF1FF082FF1FFA82FF1FFD82FF1FD882FF1F00E100E00960004028600040086000401260004080B400AF0F4B00221A700F4B00221A700D
:400A80000E4B00221A700E4B00221A700D4B00221A700D4B00221A700C4B00221A700C4B03221A700B4B80221A7000BFBD4680BC704700BFDC82FF1FF882FF1FFB82FF1F76
:400AC000F082FF1FFA82FF1FFD82FF1FD882FF1F286000400860004080B400AF034B1B78DBB21846BD4680BC704700BFFB82FF1F80B483B000AF0346FB71FA790649134662
:400B00005B0013449B000B4401331B78DBB218460C37BD4680BC70470083FF1F80B485B000AF0346FB710023FB81FB79002B1CD0FB79082B19D8104AFB791B0113441B782A
:400B4000DBB29BB203F00F03FB81FB891B029AB20949FB791B010B4401331B78DBB29BB21343FB81FB89023BFB81FB8918461437BD4680BC704700BFFC5F0040B0B485B036
:400B800000AF03463960FB711346BB80FB79002B6DD0FB79082B6AD8B988FA79364813465B0013449B00034406331B889BB2C3F5007399420CD9FA792F4913465B001344B6
:400BC0009B000B4406331B889BB2C3F50073BB802A4CF979BB881B0A9BB2D8B2FA79264D13465B0013449B002B4403331B78DBB20343DAB20B0123441A70204AFB79B98816
:400C0000C9B21B01134401330A461A703B68002B13D00023FB810CE01948FB79FA8939680A4412781B01034408331A70FB890133FB81FA89BB889A42EED3FA790E491346C9
:400C40005B0013449B000B44013300221A700B48F979FA79084C13465B0013449B00234405331B78DAB20B01034402331A7000BF1437BD46B0BC70470083FF1FFC5F00408A
:400C80007060004080B584B000AF03463960FB711346BB803B68002B30D0FB79002B2DD0FB79082B2AD8FB791846FFF737FF03461A46BB88934205D9FB791846FFF72EFF85
:400CC000034600E0BB88BB800023FB810DE0FB893A6813440D49FA7912010A4408321278D2B21A70FB890133FB81FA89BB889A42EDD3FB79184600F00BF801E00023BB80AE
:400D0000BB8818461037BD4680BD00BF7060004090B482B000AF0346FB71FB79002B1CD0FB79082B19D8FA790E4913465B0013449B000B44013300221A700B48F979FA79E8
:400D4000084C13465B0013449B00234405331B78DAB20B01034402331A7000BF0837BD4690BC70470083FF1FFC5F004080B582B000AF0023FB71314B1B79DBB2184600F0D9
:400D800067F80346BB712D4B1B78DBB25BB2002B15DA2A4B5B78DBB2212B00D048E0284B07221A80BA791346DB009B1A254A1344234A536000F020FB0346FB7138E01F4B0D
:400DC0005B78DBB2202B02D0222B1AD030E01C4B07221A80BA791346DB009B1A194A1344174A5360BB79BA7917498A5CD2B242F00102D1B2144AD15400F07CFB0346FB7193
:400E000016E0BB790D4A9278D2B291B20F4A22F81310BB79BA790C498A5CD2B242F00202D1B2094AD15400F003FC0346FB7100BFFB7918460837BD4680BD00BF0060004060
:400E4000E482FF1FD080FF1FC082FF1FD482FF1F80B485B000AF0346FB710023FB73FF23BB7317E0FB7B104AD35C7B737A7B0F4913465B0013449B000B440A331B78DBB27B
:400E8000FA799A4203D1FB7BBB730223FB73FB7B0133FB73FB7B012BE4D9BB7B18461437BD4680BC704700BFC882FF1F0083FF1F80B582B000AF0023BB71224B00221A7046
:400EC000214B00221A70204B00225A700023FB7110E0FB791D4AD35C7B717B79002B06D07B79082B03D87B791846FFF711FFFB790133FB71FB79012BEBD9154B1B78DBB2C7
:400F0000002B18D0114B1B78DBB2002B13D0114B1B78DBB2002B0ED00D4B1B78DBB2082B09D80A4B1B78DBB2082B04D8094B1B78DBB2082B01D90123BB71BB7918460837DD
:400F4000BD4680BD9381FF1FC082FF1FCC82FF1FC482FF1FC882FF1F80B584B000AF78600B467B80144B1B781A46144B9B5CFB73FA7B134913465B0013449B000B44083314
:400F80001B889BB27A889A420CD9FA7B0C4913465B0013449B000B4408331B887B80002001F094FC7A88FB7B79681846FFF7E6FD00BF1037BD4680BD9381FF1FC482FF1FD9
:400FC0000083FF1F80B584B000AF0346FB71FB79FB73084B1B781A46074B9B5CDBB207F10F0101221846FFF7C9FD00BF1037BD4680BD00BF9381FF1FC482FF1F80B500AFC1
:40100000054B1B781A46054B9B5CDBB21846FFF76FFD0346184680BD9381FF1FCC82FF1F80B500AF054B1B781A46054B9B5CDBB21846FFF75DFD0346184680BD9381FF1F98
:40104000C482FF1F80B582B000AF084B1B781A46074B9B5CFB71B91DFB7901221846FFF711FEBB7918460837BD4680BD9381FF1FCC82FF1F80B485B000AF78600B46FB70D0
:401080001346BB707B68DB7803F00303FB737B689B785BB2002B1ADAFB7B032B0AD0BB7803F001031449FA78CA54BB7843F00103BB701BE0BB789B08DBB203F001030F4916
:4010C000FA78CA54BB7843F00403BB700EE0FB7B032B0BD0BB785B08DBB203F001030849FA78CA54BB7843F00203BB70BB7818461437BD4680BC7047C482FF1FC882FF1F2C
:40110000CC82FF1F80B582B000AF374B1B78BB71BB7903F01003002B62D00123FB7197F90630002B12DABB7903F00F03012B02D00023FB711CE000F061F82C4B1B78DBB246
:401140005BB2002B14DA0023FB7111E0BB7903F04003002B02D000F095F809E0BB7903F02003002B02D000F0B3F801E00023FB71FB79002B34D01C4B1B78BB7197F906301B
:40118000002B2DDB1A4B1B78DAB21A4B1B78DBB21343BB71184ABB791370174B1B78DBB2BA799A421CD1114B1B78FB710E4B1B78DBB223F07F03BB71BB79002B0AD10A4BB6
:4011C0000A4A1278D2B21A70074B1B78DBB203F00F03FB71054B1B78DBB2FA799A42E2D100BF0837BD4680BD28600040F982FF1F6E83FF1FFC82FF1F2960004080B582B034
:4012000000AF1D4B1B78FB711B4AFB7913701A4B1B78FB7197F90730002B03DA174AFB79137025E0022000F045FA154B1B78DBB203F06003202B08D0402B0BD0002B0ED112
:4012400000F0F8FA0346FB710CE001F02DFE0346FB7107E001F000FB0346FB7102E00023FB7100BFFB79002B02D1044B03221A7000BF0837BD4680BD28600040F982FF1F53
:401280000060004080B500AF104B1B78DBB2062B19D801A252F823F0C7120000C7120000B5120000C7120000BB120000C7120000C112000000F0F8F806E000F0A7F903E009
:4012C00000F0D2F900E000BF00BF80BDDC82FF1F80B500AF124B1B78DBB2062B1DD801A252F823F01B1300001B130000011300001B130000071300001B1300000D1300008F
:4013000000F0D8F80AE000F027F907E0032000F0D1F9044B03221A7000E000BF00BF80BDDC82FF1FF982FF1F80B483B000AF0023FB71294B1B78DBB29AB2284B1B889BB299
:4013400013449AB2254B1A8015E02549FB79254A52681278D2B2CA54224B5B680133214A5360FB790133FB711E4B1B889BB2013B9AB21C4B1A801B4B1B889BB2002B02D0C9
:40138000FB79072BE1D9144B1B78DBB2082B02D0FB79002B0FD0144B1B78DBB283F07F03DB43DAB2104B1A70104B0F221A70104B02221A7005E00D4B02221A700C4B022243
:4013C0001A700C4AFB791370034AFB79137000BF0C37BD4680BC7047D882FF1FDA82FF1F00600040E482FF1F6E83FF1FF982FF1FDC82FF1FFC82FF1F80B582B000AF164B8D
:401400001B889BB2002B02D100F02EF81EE0134B02221A70124B00221A7000F06BF9114BDB79DBB29BB21B029AB20E4B9B79DBB29BB21343FB80084B1B889BB2FA889A4295
:4014400002D2054AFB881380FFF76EFF012318460837BD4680BD00BFE482FF1FDC82FF1F6E83FF1F0060004080B400AF094B02221A70094B80221A70084B0F221A70084B9B
:4014800000221A70074B00221A7001231846BD4680BC7047DC82FF1F6E83FF1FF982FF1FD882FF1FFC82FF1F80B500AFFFF73CFF00BF80BD80B500AF0A4B1B78DBB29AB21C
:4014C000094B1B889BB213449AB2074B1A80074B00221A70012000F0EDF8054B03221A7000BF80BDD882FF1FDA82FF1FDC82FF1FF982FF1F80B582B000AF124B04221A7000
:40150000114B80221A7000F0F5F8104BDB79DBB29BB21B029AB20D4B9B79DBB29BB21343FB800B4B1B889BB2FA889A4202D2084AFB881380074B0B221A7001231846083793
:40154000BD4680BDDC82FF1F6E83FF1F00600040E482FF1FF982FF1F80B483B000AF0023BB71234B1B78DBB203F00F03DBB2023BFB71FB799AB21F4B1B889BB213449AB2F8
:401580001C4B1A8018E01C4B5B681C49BA798A5CD2B21A70184B5B680133174A5360BB790133BB71FB79013BFB71134B1B889BB2013B9AB2104B1A800F4B1B889BB2002B1E
:4015C00002D0FB79002BDED10D4AFB7913700D4B1B78DBB283F07F03DB43DAB2094B1A70094B0B221A7000BF0C37BD4680BC704729600040DA82FF1FE482FF1F006000401E
:40160000FC82FF1F6E83FF1FF982FF1F80B500AF054B00221A70012000F04CF8034B03221A7000BF80BD00BFDC82FF1FF982FF1F80B400AF084B06221A70084B06221A7077
:40164000074B80221A70074B00221A7001231846BD4680BC704700BFDC82FF1FF982FF1F6E83FF1FFC82FF1F80B500AF0D4B1B78DBB2002B0AD00C4A0A4B1B78DBB263F078
:401680007F03DBB21370074B00221A70074B00221A70012000F00EF8054B03221A7000BF80BD00BFFA82FF1F08600040DC82FF1FF982FF1F80B483B000AF0346FB710B4B53
:4016C0009B68002B0CD0094B9B68FA791A70074B9B68074A128892B25A80044B00229A6000BF0C37BD4680BC704700BFE482FF1FDA82FF1F80B400AF094B00221A80094BC7
:401700009B68002B07D0074B9B6800221A70054B9B6800225A8000BFBD4680BC704700BFDA82FF1FE482FF1F80B400AF0D4B01221A700D4B9B7C0D4B1B7BDBB203F0030317
:40174000012B08D0094BDB7BDBB283F07F03DB43DAB2064BDA73054B01225A7300BFBD4680BC70470B600040FC5F00400083FF1F80B400AF0E4B02221A700E4B93F82230F5
:401780000D4B1B7EDBB203F00303012B08D00A4BDB7EDBB283F07F03DB43DAB2064BDA76054B01225A7600BFBD4680BC704700BF0B600040FC5F00400083FF1F80B400AFB2
:4017C000104B04221A70104B93F832300F4B93F82430DBB203F00303012B0AD00B4B93F82730DBB283F07F03DB43DAB2074B83F82720064B012283F8252000BFBD4680BC27
:40180000704700BF0B600040FC5F00400083FF1F80B400AF00BFBD4680BC704780B500AFFFF726F900BF80BD80B500AF01F03EF800BF80BD80B586B000AF0023FB759D4B22
:401840001B78FB7100233B619B4B00221A8097F90730002B80F20481964B5B78DBB20A2B00F21B8201A252F823F000BFB71900009B1C00009B1C00009B1C00009B1C0000AF
:401880009B1C0000991800009B1C00002B1A00009B1C0000411A0000864BDB78DBB2012B0ED100F049FEB860BB685B68824A5360814B12221A80FFF79FFD0346FB75EEE18E
:4018C0007C4BDB78DBB2022B25D17A4B9B78DBB2184600F009FEB860BB68002B00F0DF81BB685B68744A5360734B5B6803331B78DBB29BB21B029AB26F4B5B6802331B7885
:40190000DBB29BB213439AB26B4B1A80FFF774FD0346FB75C3E1674BDB78DBB2032B45D10023FB73654B3B6109E03B691B78BB71BB793A6913443B61FB7B0133FB735D4B8E
:401940009B78DBB2FA7B9A4204D23B691B78DBB2002BEAD1574B9B78DBB2EE2B01D1584B3B61544B9B78DBB2002B0BD0514B9B78DAB2544B1B7C9A4204D1534800F0ACF9F3
:40198000514B3B613B691B78DBB2002B00F087813B691B78DBB29AB2474B1A80464A3B695360FFF729FD0346FB7578E101F07CFA0346FB7573E1FB7903F00303002B20D0BB
:4019C000022B00D030E03C4B02221A80394B1B79DBB203F07F023D4913465B0013449B000B4402331B78DAB2394B1A70384B00225A70314B364A5A60FFF7FEFC0346FB75D1
:401A000012E02D4B02221A80324B1B78DAB2304B1A702F4B00225A70274B2D4A5A60FFF7EBFC0346FB7500BF40E1234B01221A80214B294A5A60FFF7DFFC0346FB7535E1FA
:401A40001D4B01221A801B4B1B79DBB21A46234B1344194A5360FFF7CFFC0346FB7525E1144B5B78DBB2013B0A2B00F21A8101A252F823F07F1B0000A31C00000D1C0000C0
:401A8000A31C0000A11A0000A31C0000A31C0000A31C0000E51A0000A31C00003B1B0000044B9B78DAB20E4B1A70FFF7C1FD0346FB75FBE000600040E482FF1FDC3800000A
:401AC000E4390000843800008083FF1F0083FF1F9481FF1FFD82FF1FFB82FF1F6C83FF1FFA82FF1F744B9B787B717B79002B06D07B79013BDBB2184600F0F6FCB8607B797D
:401B0000002B02D0BB68002B03D17B79002B40F0CA806A4B1B78DBB27A799A4208D0674A7B791370664B01221A70012000F0DCF9FFF77EFD0346FB75B5E000F055FE0346BA
:401B4000002B00F0B2805C4B1B793B715A4B1B79DAB25C4B1A703B795B4AD35CDAB23B795A49CB5CDBB29A4204D0554B01221A7000F08CFBFFF75CFD0346FB7595E0FB79B7
:401B800003F00303012B20D0012B0CD3022B00D03BE0494B9B78DBB2002B31D100F078FD0346FB752CE0444B9B78DBB2012B29D1474B1B78DBB223F00203DAB2444B1A709E
:401BC000FFF736FD0346FB751CE03B4B1B79DBB2012B19D8384B9B78DBB2DB43DBB2364A1279D2B2114610463A4A125CD2B21340DAB2384B5A54FFF71BFD0346FB7503E009
:401C000000BF53E000BF51E000BF4FE0FB7903F00303012B20D0012B0CD3022B00D03BE0254B9B78DBB2002B31D100F0BDFC0346FB752CE0204B9B78DBB2012B29D1244BDD
:401C40001B78DBB243F00203DAB2214B1A70FFF7EFFC0346FB751CE0174B1B79DBB2012B19D8154B9B78DBB2DB43DBB2124A1279D2B211461046174A125CD2B21340DAB25F
:401C8000144B5A54FFF7D4FC0346FB7503E000BF0CE000BF0AE000BF08E000BF06E000BF04E000BF02E000BF00E000BFFB7D18461837BD4680BD00BF00600040FB82FF1F14
:401CC000F882FF1FF082FF1FE082FF1F6C83FF1FFD82FF1F7083FF1FB0B58AB000AF7860324B07F114041D460FCD0FC42B682370002387F826307B68002B52D07B68222247
:401D00001A707B68013303221A7007F10C03184600F048FE022387F827303EE097F827307A68134497F8262007F128010A4412F81C2C1209D2B207F128010A4412F8142C92
:401D40001A7097F8273001337A68134400221A7097F8273002337A68134497F8262007F128010A4412F81C2C02F00F0207F128010A4412F8142C1A7097F8273003337A68AC
:401D8000134400221A7097F82630013387F8263097F82730043387F8273097F82730212BBCD900BF2837BD46B0BD00BF7038000090B482B000AF0123FB7180E0464AFB796A
:401DC0001B0113440C221A70FA79444913465B0013449B000B4405331B78DBB2002B1CD0FA793E4913465B0013449B000B4404331B78DBB25BB2002B07DA394AFB791B01E2
:401E0000134402330C221A700EE0354AFB791B011344023308221A7006E0314AFB791B011344023380221A702B48F979FA792B4C13465B0013449B00234406331B889BB273
:401E4000DAB20B01034406331A702348F979FA79224C13465B0013449B00234406331B889BB21B0A9BB2DAB20B01034407331A701948F979FA79194C13465B0013449B0066
:401E8000234406331B889BB2DAB20B01034404331A701148F979FA79104C13465B0013449B00234406331B889BB21B0A9BB2DAB20B01034405331A70FB790133FB71FB7987
:401EC000082B7FF67BAF074BFF221A7000BF0837BD4690BC704700BF706000400083FF1FFC5F00400A60004080B58AB000AF0346FB7100237B84002387F8273050E097F8AD
:401F00002720B34913465B0013449B000B4400221A7097F82720AE4913465B0013449B000B44023300221A7097F82720A84913465B0013449B000B44033300221A7097F8ED
:401F40002720A34913465B0013449B000B44083300221A8097F827209D4913465B0013449B000B440A3300221A7097F82720984913465B0013449B000B44013300221A701C
:401F800097F82720924913465B0013449B000B44053300221A7097F82730013387F8273097F82730082BAAD9FB79002B16D0002387F825300EE097F82530864A0021D154A7
:401FC00097F82530844A0021D15497F82530013387F8253097F82530012BECD97F4B1B78DBB2002B00F04A810023FB767B4B1B78DBB2013BDBB2184600F076FA78617B699A
:402000005B683B613B6907331B7803F04003002B08D0734B1B78DBB243F00103DAB2704B1A7007E06E4B1B78DBB223F00103DAB26B4B1A707B6908337B617B691B7887F81D
:402040002730012387F82530B6E07B695B68FB61002387F82630A3E097F82520FB699B7803F07F039A4240F0938097F82520584913465B0013449B000B4408331B889AB28A
:40208000FB699B889A420CD297F82520FB6998884F4913465B0013449B000B44083302461A80FB691B781A464A4B9B5CDAB2FB695B789A426CD197F82520FB699878444949
:4020C00013465B0013449B000B44043302461A7097F82520FB69D8783D4913465B0013449B000B4402461A70FB69DB7803F00303FB73FB699B785BB2002B1CDA97F8252076
:40210000FB7B012B01D1072000E00D20304913465B0013449B000B44053302461A7097F825202B4913465B0013449B000B44013301221A701BE097F82520FB7B012B01D11E
:40214000052000E00920224913465B0013449B000B44053302461A7097F825201C4913465B0013449B000B44013300221A70FB699B790A2B03D0FB699B79022B08D1FA7E43
:4021800097F825301946F869FEF774FF0346FB76FB690833FB6197F82630013387F8263097F8262097F827309A42FFF455AF97F82530013387F8253097F82530082B7FF66A
:4021C00044AF7B695B68FB61002387F8253020E00083FF1F6C83FF1FE082FF1FFB82FF1FFD82FF1FFB699B7803F07F02FB691878244913465B0013449B000B440A330246C6
:402200001A70FB690833FB6197F82530013387F8253097F8252097F827309A42E2D300F09DF90246184B1A6000237B84012387F827301DE097F82720124913465B001344E2
:402240009B000B4406337A8C1A8097F827200D4913465B0013449B000B4408331B889AB27B8C13447B8497F82730013387F8273097F82730082BDDD9FFF79AFD00BF283789
:40228000BD4680BD0083FF1FF482FF1F90B585B000AF8F4B1B78DBB2002B00F015818C4B1B78DBB2013BDBB2184600F01DF978607B6808337B607B681B78FB707B685B6859
:4022C000BB60844B1B78BB700023FB73F7E0BB681B78BA789A4240F0EC80BB787E4AD35CDAB2BB685B789A4240F0E380BB689B7803F07F037B70BB68DB7803F003033B70A3
:402300007A78764913465B0013449B000B44033300221A707A78BB689878704913465B0013449B000B44043302461A707A78BB68D8786A4913465B0013449B000B440246E4
:402340001A707A78BB689888644913465B0013449B000B44083302461A80BB689B785BB2002B1ADA7A783B78012B01D1072000E00D205A4913465B0013449B000B440533D6
:4023800002461A707A78554913465B0013449B000B44013301221A7019E07A783B78012B01D1052000E009204C4913465B0013449B000B44053302461A707A7847491346AC
:4023C0005B0013449B000B44013300221A70444A7B781B011344023301221A70404879787A783E4C13465B0013449B00234408331B889BB21B0A9BB2DAB20B0103441A7083
:40240000374879787A78354C13465B0013449B00234408331B889BB2DAB20B01034401331A70304879787A782C4C13465B0013449B00234406331B889BB2DAB20B010344FC
:4024400006331A70274879787A78244C13465B0013449B00234406331B889BB21B0A9BB2DAB20B01034407331A701E4879787A781A4C13465B0013449B00234406331B88F4
:402480009BB2DAB20B01034404331A70154879787A78124C13465B0013449B00234406331B889BB21B0A9BB2DAB20B01034405331A70BB680833BB60FB7B0133FB73FA7B42
:4024C000FB789A42FFF403AF00BF1437BD4690BDFB82FF1FF082FF1F6C83FF1F0083FF1FFC5F00407060004080B485B000AF0346FB710F4B1B78DBB20E4ADB0013445B6876
:40250000FB60FB681033FB60FB681B78FA799A4202D30023FB6005E0FB79DB00FA6813445B68FB60FB6818461437BD4680BC7047D982FF1FDC39000080B400AF054B1B7846
:40254000DBB2054ADB0013445B681846BD4680BC704700BFD982FF1FDC39000080B584B000AF104B1B78DBB2013BDBB21846FFF7BBFFB860BB68002B0DD0BB685B681B79C2
:40258000FB71FB790233DB00BA681344BB60BB685B68FB6001E00023FB60FB6818461037BD4680BDFB82FF1F80B582B000AF0023FB71344B1B79DBB203F07F03BB71BB79FA
:4025C000002B5AD0BB79082B57D8BA79B9792E480B465B000B449B00034402331B78DBB243F00103D8B2284913465B0013449B000B44023302461A70BA79234913465B0062
:4026000013449B000B44033300221A70BA79B9791D480B465B000B449B00034401331B78DBB243F00203D8B2174913465B0013449B000B44013302461A70BA791249134678
:402640005B0013449B000B4404331B78DBB25BB2002B07DA0D4ABB791B01134402338D221A7006E0094ABB791B011344023389221A70FEF7DDFF0346FB71FB791846083701
:40268000BD4680BD006000400083FF1FFC5F004080B582B000AF0023FB71504B1B79DBB203F07F03BB71BB79002B00F09280BB79082B00F28E80BA79B97949480B465B0092
:4026C0000B449B00034402331B78DBB223F00103D8B2434913465B0013449B000B44023302461A70BA793E4913465B0013449B000B44033300221A703A49BB793948BA792F
:40270000120102441278D2B202F07F02D2B21B010B441A70BA79B97931480B465B000B449B00034401331B78DBB223F00203D8B22B4913465B0013449B000B4401330246B0
:402740001A70BA79264913465B0013449B000B4404331B78DBB25BB2002B1BDABA79204913465B0013449B000B4401331B78DBB2012B07D11B4ABB791B01134402330C225C
:402780001A7022E0174ABB791B01134402330D221A701AE0BA79124913465B0013449B000B4401331B78DBB2012B07D10D4ABB791B011344023308221A7006E0094ABB796E
:4027C0001B011344023309221A70FEF731FF0346FB71FB7918460837BD4680BD006000400083FF1FFC5F004080B584B000AF0023FB73154B1B79BB73144B1B78DBB2013BEF
:40280000DBB21846FFF770FEB860BB685B681B79FB71BA7BFB799A4202D9BB7B022B0ED8BB7BBA7B0A498A5CD1B20A4AD154BB7B054A9278D1B2064AD1540123FB73FB7B73
:4028400018461037BD4680BD00600040FB82FF1F6C83FF1FE082FF1F80B582B000AF0023FB710F4B1B78DBB25BB2002B12DA0C4B5B78DBB2012B00D00CE00A4B0A4A5A6066
:40288000094B1B789AB2074B1A80FEF7B5FD0346FB7100BFFB7918460837BD4680BD00BF00600040E482FF1FF839000080B400AF054B1B78DBB203F040039B09DBB2184661
:4028C000BD4680BC704700BF8F45004080B483B000AF0346FB7101BE00BF0C37BD4680BC704700BF80B582B000AF0346FB80FB88054A127802FB03F3184600F0C5FA00BFD9
:402900000837BD4680BD00BFF480FF1F80B584B000AF03463960FB710F4B1B68FB60FB791F2B02D90020FFF7D1FFFB7903F01F0310339B00FA6813441B68BB60FB7903F085
:402940001F0310339B00FA6813443A681A60BB6818461037BD4680BD08ED00E080B582B000AF03460A46FB711346BB71BB79072B02D90020FFF7AAFFFB791F2B02D900204C
:40298000FFF7A4FFFB7903F01F0303F1604303F56443BA795201D2B21A7000BF0837BD4680BD00BF80B483B000AF7860264B1B78DBB21A467B681A60244B1B78DBB21B0246
:4029C0007A6812681A437B681A60214B1B78DBB21B047A6812681A437B681A601D4B1B78DBB21B067A6812681A437B681A607B680433194A1278D2B21A60184B1B78DBB2B9
:402A00001A027B6804337968043109680A431A60134B1B78DBB21A047B6804337968043109680A431A600F4B1B78DBB21A067B6804337968043109680A431A6000BF0C370A
:402A4000BD4680BC704700BF0301004904010049EC460040020100490101004900010049050100490601004980B483B000AF0346FB71044AFB79137000BF0C37BD4680BCC3
:402A8000704700BF7C64004080B500AF064B1B78002B04D100F00AF8034B01221A7000F029F800BF80BD00BF9681FF1F80B500AF102000F0CFF907210020FFF74FFF0A491F
:402AC0000020FFF723FF094A084B1B78DBB243F00603DBB213700C2000F086F8044B00221A8000BF80BD00BF092D0000095900407C83FF1F80B582B000AF00F0CDF9034622
:402B0000FB712E4A2D4B1B78DBB243F00203DBB213702B4A2A4B1B78DBB243F00203DBB21370284A274B1B78DBB243F00103DBB21370254A244B1B78DBB243F00103DBB272
:402B40001370224B1B78BB71BB7943F00203BB71BB7943F00103BB711C4ABB7913701C4B18221A701B4A1B4B1B78DBB243F04003DBB21370174A174B1B78DBB223F00303C2
:402B8000DBB21370144BC8221A70144B02221A70134A134B1B78DBB243F00803DBB213700A20FFF79FFE0F4B01221A60FB79184600F076F900BF0837BD4680BDAB430040AB
:402BC000BB430040A1430040B14300400B5900400E5900400D59004008590040164600402F5B004080E200E080B584B000AF0346FB71FB790A2B07D00C2B02D0082B06D0A6
:402C000008E0C223FB730BE08223FB7308E04223FB7305E0C223FB730020FFF757FE00BF054AFB7B1370FB79184600F02FF800BF1037BD4680BD00BF0A59004080B400AF82
:402C4000054A054B1B78DBB243F00103DBB2137000BFBD4680BC70470859004080B483B000AF084B1B88FB80074B1B881BB29BB2FA88D31A9BB21BB218460C37BD4680BCF9
:402C8000704700BFA25B00407683FF1F80B584B000AF0346FB71FB790A2B08D00C2B02D0082B08D00BE04FF48053FB600DE04FF48063FB6009E04FF48073FB6005E000239C
:402CC000FB600020FFF702FE00BF0C4B00221A80FB6842F2107202FB03F303F58063002B01DA03F2FF73DB121A46054B1A60054B00221A8000BF1037BD4680BD7483FF1FBF
:402D00007883FF1F7683FF1F80B400AF00BFBD4680BC704780B500AF084B14221A70084B00221A70064B064A1278D2B21A70002000F036F800F064F800BF80BD2C58004052
:402D40002D58004080B400AF094A094B1B78DBB243F00803DBB21370064A064B1B78DBB243F00803DBB2137000BFBD4680BC7047A8430040B843004080B500AF074B1B78A3
:402D8000002B04D1FFF7C6FF044B01221A70FFF7D9FF322000F024F800BF80BD9781FF1F80B483B000AF0346FB710C4A0B4B1B78DBB223F00203DBB213700849074B1B7809
:402DC000DAB2FB7903F00203DBB21343DBB20B7000BF0C37BD4680BC704700BF2C58004080B483B000AF0346FB71044AFB79137000BF0C37BD4680BC704700BF835B004090
:402E000080B483B000AF104B1B78DBB203F00C035B08FB710D4B1B78DBB203F00403DBB2002B02D0FB790133FB71094AFB7903F1924303F59C731B78DBB2137000BF0C37E4
:402E4000BD4680BC704700BF2C5800402D5800400B46004080B483B000AF0346FB710949084B1B78DBB25AB297F9073023F007035BB213435BB2DBB20B7000BF0C37BD4686
:402E800080BC7047024100400230800803D000BF01380046FCD17047EFF3108072B6704780F31088704700BF80B582B000AF0023BB711B4B1B78DBB203F00303012B02D099
:402EC000022B04D012E0164B1B79FB7111E0144B1B79DBB203F07F02124913465B0013449B000B440A331B78FB7102E00023FB7100BFFB79022B0ED80B4B1A68FB791344B3
:402F00001B78022B04D1FDF731FF0346BB7102E00023BB7100BFBB7918460837BD4680BD006000400083FF1FF482FF1F014B1868704700BF5C81FF1F0E4B70B51E460E4C14
:402F40000025E41AA410A54204D056F8253098470135F8E700F080FD084B094C1E46E41AA4100025A54204D056F8253098470135F8E770BD643A0000643A0000643A00007F
:402F80006C3A000010B5431E0A44914204D011F8014B03F8014FF8E710BD03460244934202D003F8011BFAE7704700000EB400B54FF402719CB0ADF814106FF000410491A8
:402FC00007914FF6FF711DAB02900690084853F8042BADF81610006802A9019300F074F8029B00221A701CB05DF804EB03B070475C81FF1F034611F8012B03F8012B002A6F
:40300000F9D17047034613F8012B002AFBD1181A013870472DE9F0478E6882469E420C46914698463ED88A8912F4906F3AD02568096902236F1A656905EB450595FBF3F520
:403040007B1C43449D4238BF1D4653050FD5294600F040FB064698B13A462169FFF792FFA38923F4906343F08003A38113E02A4600F08EFB064670B92169504600F0DEFAB4
:403080000C23CAF80030A3894FF0FF3043F04003A381BDE8F08726613E44266046466561ED1BA560464528BF464649463246206800F0A8FAA36800209B1BA36023681E44C1
:4030C0002660BDE8F08700002DE9F04F9DB003938B8980461C060D4616460DD50B695BB9402100F0F7FA2860286118B90C23C8F80030CDE040236B610023099320238DF83B
:403100002930DFF89CB130238DF82A3037463C4614F8013B1BB9B7EB060910D003E0252BF9D02746F3E74B46324629464046FFF771FF013000F0A780099B4B4409933B78C3
:40314000002B00F0A08000234FF0FF3204930793059206938DF853301A930126052221784E4800F041FA671C049B38B14B4A3C46801A06FA00F018430490EFE7D90644BF70
:4031800020228DF853201A0744BF2B228DF8532022782A2A03D0079A00210A200BE0039A111D12680391002A10DA524243F00200079204900BE027463B780134303B092B12
:4031C00003D800FB02320121F5E701B107923B782E2B1ED17B782A2B0AD1039B02371A1D1B680392002BB8BF4FF0FF33059310E0002319460593781C0A2407463A78013091
:40320000303A092A03D804FB01210123F5E703B1059103223978224800F0E6F940B14023CBEB000003FA00F0049B013718430490397806221B487E1C8DF8281000F0D4F98F
:4032400088B1194B33B9039B073323F007030833039314E003AB00932A46144B04A94046AFF3008007E003AB00932A460F4B04A9404600F093F8B0F1FF3F824603D0099BE8
:403280005344099342E7AB895B0601D4099801E04FF0FF301DB0BDE8F08F00BF223A0000283A00002C3A000000000000153000002DE9F04791461F460A698B68064693422F
:4032C000B8BF1346C9F8003091F843200C46DDF8208012B10133C9F800302368990642BFD9F800300233C9F80030256815F0060510D104F1190A07E00123524639463046F2
:40330000C04701301AD00135E368D9F800209B1A9D42F1DB94F843302268003318BF012392060FD5E118302081F843005A1C94F845102244023382F8431003E04FF0FF3051
:40334000BDE8F08704F1430239463046C0470130F4D02268D9F80050E36802F00602042A08BF5D1B2269A3680CBF25EAE57500259342C4BF9B1AED184FF000091A344D4580
:4033800009D00123224639463046C0470130D5D009F10109F3E70020BDE8F0872DE9F04317460A7E85B06E2A984606460C460C9B01F1430E00F0AE8011D8632A22D009D8F4
:4033C000002A00F0BB80582A40F0CA8081F84520834955E0642A1ED0692A1CD0C0E0732A00F0B08009D86F2A2ED0702A40F0B8800A6842F020020A603EE0752A24D0782A48
:403400003AD0ADE01A6801F14205111D1960136884F84230A8E021681A6811F0800F02D0111D196008E011F0400F02F10401196002D0B2F9003000E01368002B3CDA2D224D
:403440005B4284F8432037E021681A6811F0800F02D0111D196007E011F0400F02F10401196001D0138800E01368227E5C496F2A14BF0A2208221BE078225A4984F8452016
:403480002268186812F0800F00F104051D6003D1550601D5038800E00368D00744BF42F0200222601BB9226822F0200222601022002084F8430001E049490A226568002DB1
:4034C000A56008DB206820F0040020602BB9002D7DD175460CE0002B79D07546B3FBF2F002FB1033CB5C05F8013D03460028F5D1082A0BD12368DA0708D5236962689A42A1
:40350000DEBF302305F8013C05F1FF35C5EB0E0323612EE008681A6810F0800F496903D0101D1860136808E010F0400F02F104001860136801D0198000E019600023236133
:40354000754616E01A68111D1960156800216268284600F049F808B1401B6060636804E004F1420584F8422001232361002384F84330CDF800803B4603AA21463046FFF7CD
:4035800097FE013002D14FF0FF3026E023692A4639463046C0470130F5D023689B0710D5002504F1190907E001234A4639463046C0470130E7D00135E368039A9B1A9D4291
:4035C000F2DBE068039B9842B8BF184605E00B7804F1420584F842308AE705B0BDE8F083333A0000443A000010B5C9B202449042034605D01C7801308C42F8D1184610BDB1
:40360000002010BD884210B501EB020301D8421E0BE09842FBD28118D21AD34204D013F8014D01F8014DF8E710BD994204D011F8014B02F8014FF8E710BD000038B5054666
:40364000002944D051F8043C0C1F002BB8BFE41800F0D4F81E4A1368114613B96360146030E0A3420DD92268A018834201BF18685B681218226063600C6023E0A24203D840
:4036800013465A68002AF9D118681918A1420BD12168014458188242196013D110685268014419605A600DE002D90C232B6009E021686018824201BF1068526809182160BE
:4036C00062605C602846BDE8384000F098B838BD9C81FF1F70B5CD1C25F0030508350C2D38BF0C25002D064601DBA94202D90C23336046E000F082F8234B1C681A46214662
:40370000A1B10B685B1B0ED40B2B03D90B60CC18CD501EE08C420BBF63684B681360636018BF0C4615E00C464968E9E7174C23681BB9304600F052F820602946304600F0EC
:403740004DF8431C18D0C41C24F00304A0420DD12560304600F053F804F10B00231D20F00700C31A0ED05A42E25070BD211A304600F034F80130EBD10C233360304600F0DD
:403780003EF8002070BD00BF9C81FF1F9881FF1FF8B5074615460E4621B91146BDE8F840FFF798BF1AB9FFF749FF2846F8BD00F027F885420ED929463846FFF78BFF0446A9
:4037C00050B131462A46FFF7DDFB31463846FFF735FF01E03046F8BD2046F8BD38B5064C0023054608462360FCF716FF431C02D1236803B12B6038BDA483FF1F70477047A3
:4038000051F8040C0028BEBF091851F8043CC0180438704700000000494441432056616C3A2025752C2050696E2056616C3A202575200D0A00000000004F00400C00005100
:4038400000401000405100403000C0510040100000000140001000140140000800400140000A004C014000020050014020000000303132333435363738394142434445467B
:40388000000000001201000202000008B40432F2010001028001000009024300020101C03209040000010202010305240010010424020205240600010524010001070581E0
:4038C0000308000A09040100020A000004070582024000000705030240000000040309042C0343007900700072006500730073002000530065006D00690063006F006E005A
:4039000064007500630074006F007200100355005300420055004100520054003803430044004300200043006F006D006D0075006E00690063006100740069006F006E0042
:40394000200049006E007400650072006600610063006500260343004400430020004400610074006100200049006E00740065007200660061006300650000000203000053
:4039800000008103080002000100820240000A000100030240000A00020A0000010000009838000003000000803900000000000000000000000000000000000000000000C1
:4039C0009839000001000000843800000000000000000000010000009C39000001000000C439000012034D0053004600540031003000300001000000280000000001040057
:403A000001000000000000000001435955534200000030303030310000000000000000004300232D302B2000686C4C00656667454647003031323334353637383941424308
:403A4000444546003031323334353637383961626364656600000000F8B500BFF8BC08BC9E4670474D00000001070000F8B500BFF8BC08BC9E46704729000000903A0000CF
:403A8000C880FF1F98000000480200000000000000000000A883FF1F00C2010000000800C201000000080000A120000000000200000000000087930360EA00003C00000079
:403AC000000030750000000000000000000000000000000000000000000000000000000000000000203A0000000000000000000000000000000000000000000000000000C7
:403B0000000000000000000000000000000000000000000000000000000000000000000000000000FC80FF1F000000000000000000000000000000000000000000000000EB
:403B40000000000000000000000000000000000000000000000000000000000000000000000000000000000000000000000000000000000000000000000000000000000045
:403B80000000000000000000000000000000000000000000000000000000000000000000000000000000000000000000000000000000000000000000000000000000000005
:403BC00000000000000000000000000000000000000000000000000000000000000000000000000000000000000000000000000000000000000000000000000000000000C5
:403C00000000000000000000000000000000000000000000000000000000000000000000000000000000000000000000000000000000000000000000000000000000000084
:020000040003F7
:0200000480007A
:4000000001450040024F0040025200400364004004000140020101400303014001050140020901404E0A0140450B0140540C0140490D0140500E0140340F0140011501402F
:400040000117014001190140011B0140084001400D4101400A42014002430140024401400B45014004460140074701400348014002490140034C0140014D01400550014045
:40008000025101407E0201100A4B11087C408A0F8C388F72B880BE40D804DF011F80E610AF80E202E602E601B001B31201010C130E04100A1214142018131A0C1E0824036F
:4000C00026142A1530103220340F37013A203E053F4040364104450C46EB480D49FF4AFF4BFF4EF04F44500C54015604580459045A045B045F0166C06A406B0281048201FA
:400100008301840C850F8602880E89108E019105930A940C95109602980299039A0C9B0C9C08A202A310A404A710A80CA90FAD08AF02B201B30FB40EB710B980BA20BB2026
:40014000BE04D804D904DF01004004020611070408200A8A0B200C800E2810381502172819141A481F24200224222510262027142D102E802FA03604371138013D203E0471
:400180003F024060482850405310581059045A405B02608080808610878090419112928694A097089A919B299D109F10A088A214A301A620A720A880B620B740C0F1C2EFB2
:4001C000C476CAF0CCE0CEE1D003D204D60FD801EE0100080311043C050306410704081009030B080C040F0C111112431322147C1602184F1A301B031C2020042208260C63
:4002000028302C7F2F223070323F3530370F3A083B8054185604580459045B045F01858087138E039006920196019B089D2C9E069F43A171A30EA602A971AA05AB06AF0CF1
:40024000B007B1C0B330B70FB90ABA02BB80BF04C003C640C9FFCA07CBFFCC40CD20CEF0CF05D008D608D804D904DA04DB04DD90DF01E040E1A8E240E320004002100320BD
:40028000054006D0070809080A820C800D010E2810241765184019011E601F082104224125402706280529112E8030203240371138083D903E043F024104502C5108588124
:4002C0005A025E026240658067486F01874090019112920494A096C099C09A019B289C019D119E409F03A080A205A301A420A620A728B010B180B480C0F1C2FDC4F6CA1D05
:40030000CCACCEF2D002D688D8B8E20203030D1419101D1C1F02210C231129102B0C2D092F10371F560859045B045D905F0181048208850289068A0C8C048E089201951912
:4003400096019706991F9E04A109A202A410A517A708A810A916AB09AC10AF09B010B108B201B307B40EB510B60EBB08BE54BF10C064C103C205C402C6C0C7E0C828C9FFB4
:40038000CAFFCBFFCC62CDA0CEF0CF41D00CD602D711D804D904DA04DB04DF01E640E702E910EA30EB10ED10EE10EF120420064007010E400FA2154017161C201D201F4269
:4003C0002001261D280129112F6A302032403410362438813E2A4101428043024410452046804E084F805601571058805E20614063026D506E046F147480762A7728C0D0A0
:40040000C2B0C4F0CAFDCC6CCEE9D0E0D230D628D808E610EE08EE02EE02EE0832023320364037043B408F04CCF0CE1032403680860287409740A301A642A720AF01CC3061
:40044000E240E640EE101280630282409680A301A6C0A720C410D640E680A640A7208F01E608001008025840850294109701B410C002C208D401EA0897019C40A502A802CA
:400480000B410D029701A502B040C20EE801A720AE40EE40AF20EE101F80AF40C601AF80000101010C010E010F0100AB013F00004000000000000000C0000000000B0B0095
:4004C000000000000800140A0A00080000000000004343000000200025001801000000000000000000000000000000000000000000000000000000000000000000000000E0
:4005000000000000000000000000000000000000000000000000000000000000000000000000000000000000000000000000000000000000000000000000000000000000BB
:40054000000000000000000000000000000000000000000000000000000000000000000000000000000000000000000000000000000000000000000000000000000000007B
:40058000000000000000000000000000000000000000000000000000000000000000000000000000000000000000000000000000000000000000000000000000000000003B
:4005C00000000000000000000000000000000000000000000000000000000000000000000000000000000000000000000000000000000000000000000000000000000000FB
:0200000490006A
:0400000000004005B7
:0200000490105A
:04000000BC90ACAF55
:0200000490303A
:020000001DFEE3
:0200000490402A
:4000000000000000000000000000000000000000000000000000000000000000000000000000000000000000000000000000000000000000000000000000000000000000C0
:400040000000000000000000000000000000000000000000000000000000000000000000000000000000000000000000000000000000000000000000000000000000000080
:400080000000000000000000000000000000000000000000000000000000000000000000000000000000000000000000000000000000000000000000000000000000000040
:4000C0000000000000000000000000000000000000000000000000000000000000000000000000000000000000000000000000000000000000000000000000000000000000
:0200000490501A
:0C00000000012E16106900012E2D2E6745
:00000001FF