:400000000080002011000000D9040000D904000080B500AF024A034B1B68136000F066FABC760040FA46004010B5054C237833B9044B13B10448AFF300800123237010BDFD
:400040005081FF1F000000006C1D0000084B10B51BB108490848AFF300800848036803B910BD074B002BFBD0BDE81040184700BF000000005481FF1F6C1D0000C880FF1FE0
:400080000000000080B500AF62B600F0C3FA00F08DFB00F0DDFAFCE780B582B000AF786039603A680021786801F057FE00BF0837BD4680BD80B584B000AFF860B9607A6064
:4000C0007A68B968F86801F03DFE00BF1037BD4680BD00BF80B483B000AF0346FB71FEE780B487B000AF7860396000233B6100237B6127E07B699B007A6813441B68BB6016
:40010000BB68FB73BB6823F0FF03BB6014E03B695B003A6813441B781A46BB68134419463B695B003A6813445B780B703B6901333B61FB7B013BFB73FB7B002BE7D17B690C
:4001400001337B617B691B2BD4D900BF1C37BD4680BC704780B582B000AF334B01221A80324B18221A70324BEF221A80314B1C221A70314B02221A704FF0402308221A7012
:400180002E4B03221A702E4B2E4A1278D2B21A702D4B08221A802D4B41F251221A800023FB7019237B6014E0FB785B00DAB2284B1B78DBB203F00103DBB21343DBB203F0BA
:4001C0000303FB704FF4F07000F0C2FB7B68013B7B607B68002B02D0FB78032BE4D17B68002B02D10320FFF775FF1A4B4FF480721A80184B07221A70174B00221A70174BE6
:4002000048221A70134B00221A70154B02221A70144A144B1B78DBB243F00303DBB2137000BF0837BD4680BD8040004082400040844000408640004000430040004200403D
:40024000A14600400801004922420040204200402542004004400040064000400840004001400040A243004080B483B000AF114B1B78FB71104AFB7903F00703DBB2137094
:400280000E4AFB791B09DBB213700D4B80221A700C4B00221A700C4B20221A700B4B09221A700B4B44221A7000BF0C37BD4680BC704700BFCF0100496E5800406F58004066
:4002C0002D51004070580040D35A0040005B00407658004080B483B000AF0346FB71FB79042B0ED8FB79094A52F82330FA79074951F822201178FA790548825C0A43D2B224
:400300001A7000BF0C37BD4680BC7047701D0000841D000080B483B000AF0346FB71FB79042B10D8FB790A4A52F82330FA79084951F822201178FA790648825CD243D2B242
:400340000A40D2B21A7000BF0C37BD4680BC7047701D0000841D000080B582B000AF72B6444A444B1B78DBB243F00403DBB213700023FB7113E0FA7913465B0013445B00DF
:400380003D4A13443B603B681A683B689B889BB219461046FFF780FEFB790133FB71FB79072BE8D935494FF09040FFF799FE344B4FF480721A80334B40F203221A80324B94
:4003C000324A1A60324A324B1B78DBB243F00203DBB213702F4A2F4B1B78DBB243F00203DBB213702C4A2C4B1B78DBB243F04003DBB21370294A294B1B78DBB243F010036B
:40040000DBB21370082226492648FFF753FE0A2225492648FFF74EFE052225492548FFF749FE082224492548FFF744FE082224492448FFF73FFE244A234B1B78DBB243F034
:400440000803DBB21370214B61221A70FFF782FE1E4B81221A701E4B01221A70FFF704FF0E220D491B48FFF725FE00BF0837BD4680BD00BFE84600408C1D000070000048FF
:40048000705800404C580040D80A0140040404840350014013500140A0430040C2430040AC03004802510040B4030048C0510040C0030048CB510040C80300481251004006
:4004C000D003004822510040224300400048004004000840B043004080B500AF01F006FC03461B680C2B00D1FEE7FEE780B586B000AF224B7B61224B3B61204B7B6135E045
:400500003B691B68FB603B695B68BB603B699B683B6000237B600CE0FB681A68BB681A60BB680433BB60FB680433FB607B6804337B607A683B689A42EED13B69DB683B6008
:4005400000237B6008E0BB6800221A60BB680433BB607B6804337B607A683B689A42F2D13B6910333B617B69013B7B617B69002BC6D101F0C1FBFFF785FDFEE70100000018
:400580001C1E000080B582B000AF184B184A1A60184A184B1B6843F40073136000237B600FE07B68032B04D8134A7B6852F8233000E0124B12497A6841F822307B68013374
:4005C0007B607B682F2BECD90E4B1B78DAB20E4B1A700E4B0A4A1A60FFF7BEFE0C4B00221A6000BF0837BD4680BD00BF0CED00E00004FA0514ED00E000000000D904000060
:400600000080FF1FBC760040C480FF1F08ED00E0C080FF1F80B500AF0B4801F011F90B4B01221A7000F090FC00F0A8FE00F0A6FE00F00EFA054A1F211F2000F03DFA00F05D
:40064000FFFC00BF80BD00BF7981FF1F7881FF1F80B500AF00F020FD0346002B21D1124801F078F900F03EFF104800F027F80E4801F008F90E4B4FF400421A6000BF0D4B37
:400680005B78DBB2042BFAD100F0F4F9034603F01003002BF3D1084B4FF400421A6000F0CFFC00BF80BD00BF7981FF1F7C81FF1F00E100E07881FF1F80E100E080B584B048
:4006C00000AF78600023FB7300F0E6FF0023FB730AE0FB7BFA7B0849895C7A6813440A461A73FB7B0133FB73FB7B002BF1D000BF1037BD4680BD00BFBC81FF1F80B483B01A
:4007000000AF0346FB7101BE00BF0C37BD4680BC704700BF80B584B000AF03463960FB710F4B1B68FB60FB791F2B02D90020FFF7E5FFFB7903F01F0310339B00FA6813448E
:400740001B68BB60FB7903F01F0310339B00FA6813443A681A60BB6818461037BD4680BD08ED00E080B582B000AF03460A46FB711346BB71BB79072B02D90020FFF7BEFF0E
:40078000FB791F2B02D90020FFF7B8FFFB7903F01F0303F1604303F56443BA795201D2B21A7000BF0837BD4680BD00BF80B500AF064B1B78002B04D100F00AF8034B012258
:4007C0001A7000F04FF800BF80BD00BF6C81FF1F80B582B000AF204B1B78DBB223F03F03FB711D4AFB7943F00903DBB213701B4A1A4B1B78DBB243F00103DBB21370184A53
:40080000174B1B78DBB243F00103DBB213704CF2503000F037F84CF2503000F051F846F2A81000F05DF8002000F06AF800F098F80346BB710A4A0A4B1B78DBB243F0100370
:40084000DBB21370BB79184600F08EF800F02AF800BF0837BD4680BD7D6400409C6400409D64004080B400AF054A054B1B78DBB263F07F03DBB2137000BFBD4680BC704732
:400880007D64004080B483B000AF0346FB80044AFB88138000BF0C37BD4680BC704700BF1868004080B500AF01E000F045F800F037F8034603F01003002BF6D100BF80BD14
:4008C00080B483B000AF0346FB80044AFB88138000BF0C37BD4680BC704700BF9868004080B483B000AF0346FB80044AFB88138000BF0C37BD4680BC704700BF58680040CE
:4009000080B483B000AF0346FB71044AFB79137000BF0C37BD4680BC704700BF8D64004080B400AF034B1B78DBB21846BD4680BC704700BF6D64004080B400AF034B1B8876
:400940009BB21846BD4680BC704700BFB86800400230800803D000BF01380046FCD17047EFF3108072B6704780F31088704700BF80B500AF154B01221A70154B81221A7018
:40098000144B04221A70144B03221A70134B00221A70134B4FF400421A6007210F20FFF7E1FE10490F20FFF7B5FE0F4B00221A700E4B00221A700E4B00221A800D4B0022BC
:4009C0001A800D4B00221A8000BF80BDD6490040C8490040CA490040DB490040DC49004080E100E0250B0000A081FF1F9A81FF1F9C81FF1F9881FF1FA281FF1F80B582B07E
:400A000000AFFFF7ADFF0346FB710E4A0D4B1B78DBB243F00403DBB213700B4A0A4B1B78DBB243F00403DBB21370FB791846FFF79BFF064B4FF400421A6000BF0837BD46CF
:400A400080BD00BFA5430040B543004000E100E080B500AF064B1B78002B04D1FFF788FF034B01221A70FFF7C9FF00BF80BD00BF6D81FF1F80B483B000AF0C4B4FF40042A2
:400A80001A600B4B1B78FB71094B1B78DBB203F01003DAB2064B1A70064B4FF400421A60FB7918460C37BD4680BC704780E100E09A81FF1F00E100E080B483B000AF034691
:400AC0003A60FB800B46BB800F4B4FF400421A603B68002B08D00D4A3B6813600C4AFB8813800C4ABB8813800B4B00221A800B4B00221A800A4B4FF400421A6000BF0C37D7
:400B0000BD4680BC704700BF80E100E0A481FF1F9E81FF1FA281FF1F9C81FF1F9881FF1F00E100E080B400AF974B1B78DAB2974B1A70964B1B7803F00803002B42D0944BED
:400B40001B78DBB203F00103002B24D0904A914B1B689149098889B20B441B78DBB21370894B14221A708C4B1B889AB28B4B1A808A4B1B889BB201339AB2884B1A80884B1F
:400B80001B78DBB243F01103DAB2854B1A70854B08221A70D9E07C4B10221A70804B1B78DBB243F01203DAB27D4B1A707D4B01221A707D4A7C4B1B78DBB243F01003DBB221
:400BC0001370C2E0714B1B7803F00103002B00F0BC80744B1B78DBB2013B072B00F2A88001A252F823F000BF090C0000230C0000310D00006F0C0000310D0000310D000094
:400C0000310D0000B90C0000614B1B78DBB29AB2664B1A805C4B10221A70624B02221A7093E0624B1B881B029AB2594B1B78DBB29BB213439AB25D4B1A805C4B1A885C4B7F
:400C40001B889BB29A420ED24F4B10221A70574B1A88514B1A80554B1A88504B1A80514B04221A7071E0484B00221A706DE04B4B1B889AB24F4B1B889BB29A4218D2444BF4
:400C80001B78DAB24C4B1A703F4B10221A70414B1B68424A128892B21344474A12781A703E4B1B889BB201339AB23C4B1A804CE0354B00221A7048E0344B1B7803F0020395
:400CC000002B23D1354B1B889AB2394B1B889BB29A4214D22E4A2F4B1B683049098889B20B441B78DBB21370274B04221A702B4B1B889BB201339AB2284B1A8025E0244BFB
:400D0000FF221A70204B04221A701EE0204BFF221A701D4B00221A70214B1B78DBB223F01003DAB21E4B1A701E4B00221A700CE01C4B00221A70184B00221A80174B0022DD
:400D40001A80114B00221A7000BF0F4B1B78DBB203F02003002B12D0114B1B78DBB223F01003DAB20E4B1A700E4B00221A700E4A0D4B1B78DBB223F01003DBB2137000BF9A
:400D8000BD4680BC704700BFD74900406E81FF1FD8490040A481FF1F9C81FF1F9881FF1F9A81FF1FA081FF1FD64900407081FF1F9E81FF1FA281FF1F7281FF1F80B582B01F
:400DC00000AF00F077F92E4B01221A70FFF7C8FD0346FB712B4A2B4B1B78DBB243F00303DBB21370284A284B1B78DBB243F00303DBB21370FB791846FFF7B6FD234BFF22A2
:400E00001A70234BFF221A70224BFF221A70224BFF221A70214BFF221A70214BFF221A70204B01221A6020490020FFF773FC07210020FFF797FC00F025FF0220FFF74AFA7A
:400E40000320FFF747FA0420FFF744FA174A174B1B78DBB243F00403DBB2137000F0AAFD00F038FE042000F093FE082000F0B0FE002000F0CDFE00BF0837BD4680BD00BF93
:400E80008B6400409B640040986400402B6400404B6400400B64004028640040586400404864004080E100E0D11600007864004080B582B000AFFFF753FD0346FB711C4AAC
:400EC0001B4B1B78DBB243F02003DBB2137000F0F3FE00F0A3FD00F021FE164A154B1B78DBB243F01003DBB21370134A124B1B78DBB243F01003DBB21370104A0F4B1B78D9
:400F0000DBB243F00103DBB21370FB791846FFF72BFD0B4B01221A600A4A0A4B1B78DBB263F07F03DBB2137000BF0837BD4680BD9B640040BB430040AB430040705800405B
:400F400000E100E07864004080B500AF064B1B78002B04D1FFF732FF034B01221A70FFF7A7FF00BF80BD00BF7381FF1F80B485B000AF0346FB71FB790133FB71FB79022BBF
:400F800012D0FB79DB08FB73FB7903F00703012202FA03F3BB73FB7B074AD25CBB7B1340DBB2002BE7D000E000BFFB7918461437BD4680BC704700BFCC80FF1F80B584B0A5
:400FC00000AF0346FB71FB790B4AD35CFB73FB790A4AD35C184600F01BFE094AFB7B0949CB5C1370FB79084AD35C184600F064F900BF1037BD4680BDEC1D0000D080FF1FA7
:401000005B640040D480FF1FD880FF1F80B582B000AF0346FB71084B00221A70074AFB791370054B81221A70FB79184600F0C4F800BF0837BD4680BDA981FF1FA881FF1FEF
:4010400080B500AF124B00221A70124BFF221A70104B1B78DBB21846FFF788FF03461A460C4B1A700B4B1B78DBB2012B0DD8084B1B78DBB243F00103DAB2054B1A70054BB4
:401080001B78DBB2184600F097F800BF80BD00BFA981FF1FA881FF1F80B400AF044B1B78DBB203F00103DBB21846BD4680BC7047A981FF1F80B582B000AF0023FB7106E0EC
:4010C000FB79184600F040F8FB790133FB71FB79012BF5D900BF0837BD4680BD80B584B000AF0346FB71FB79134AD35CFB73FB79124AD35CBB73FB79114A52F82330092237
:401100001A70FB7B0F2B01D10723FB73FB7B0D4A52F82330FA7B0B4951F822201178BA7B0A43D2B21A70FB791846FFF7D3F800BF1037BD4680BD00BFC41D0000C81D0000D6
:40114000BC1D0000CC1D000080B584B000AF0346FB71FB79144AD35CFB73FB79134AD35CBB73FB791846FFF7D5F8FB7B0F2B01D10723FB73FB7B0E4A52F82330FA7B0C495F
:4011800051F822201178BA7BD243D2B20A40D2B21A70FB79074A52F8233009221A7000BF1037BD4680BD00BFC41D0000C81D0000CC1D0000BC1D000080B582B000AF0346F2
:4011C000FB71FB791846FFF7F9FE114A104B1B78DBB243F00103DBB213700420FFF77AF8FB791846FFF77AFF0A4A0A4B1B78DBB223F00103DBB21370054A054B1B78DBB22B
:4012000043F00203DBB2137000BF0837BD4680BD786400407058004080B582B000AF0346FB71204A1F4B1B78DBB223F00303DBB21370FB791C4A1278D2B292B2120291B299
:401240001A4A22F813101A4B1B78DBB29AB2FB79F979164830F811100A4391B2134A22F81310FB79FA79114931F81220D24391B20E4A22F81310FB791846FFF765FF002070
:4012800000F0C6FC0420FFF745F80A4A094B1B78DBB243F00103DBB2137000BF0837BD4680BD00BF7864004018640040AC81FF1F086400407058004080B483B000AF0346E3
:4012C000FB71064AFB791370054AFB795B08DBB2137000BF0C37BD4680BC70472A6400403A64004080B485B000AF0346FB71FB790F4AD35CFB73FB79FA790E4931F81210A1
:401300000D4A22F81310FB790C4A0021D154FB790B4A002122F81310FB7BFA7B0949895C094AD15400BF1437BD4680BC704700BFEC1D0000AC81FF1FB481FF1FB881FF1F8B
:40134000B081FF1FE880FF1F7481FF1F80B582B000AF0346FB71FB791846FFF757FE00BFFFF79AFE0346002BFAD1FB791846FFF7B9FF00BF0837BD4680BD00BF80B582B02D
:4013800000AF0023FB7106E0FB791846FFF7DEFFFB790133FB71FB79012BF5D900BF0837BD4680BD80B586B000AF0346FB71FB79454AD35C7B757B7D444A32F813307B82C3
:4013C000FB79434A32F813303B82FB79414A32F813303A8A9A4209D3FB793E4A32F813303A8AD31AFB8201237B7508E0FB79394A32F813203B8AD31AFB8200237B757B7DB9
:40140000002B18D1FB8A142B15D9FB79324AD35C042B08D9FB791846FFF764FFFB792E4A0021D1543AE0FB792B4AD25C0132D1B2294AD15432E0FA8A7B8A9A4205D9FB8A01
:40144000132B2BD87B7D002B28D1FB79214A32F813301B02FB60FB79204AD35C1A46FB681343FB603B8AFA681344FB60FB79194A32F813301A46FB689B1AFB60FB79FA6804
:40148000120A91B2134A22F81310FB79FA68D1B2124AD154FB79104A0021D154FA8A7B8A9A4208D97B7D002B05D0FB790C49FA8A21F8132004E0FB79094A002122F8131065
:4014C00000BF1837BD4680BDEC1D0000E080FF1FAC81FF1FB481FF1FC081FF1FB881FF1FB081FF1F80B582B000AF0023FB7118E0FB79DB08BB71FB7903F00703012202FAC4
:4015000003F37B71BB790A4AD25C7B791340DBB2002B03D0FB791846FFF744FFFB790133FB71FB79012BE3D900BF0837BD4680BDCC80FF1F80B487B000AF0346FB71FB79DB
:40154000DB08FB75FB7903F00703012202FA03F3BB75FB79344AD35C7B757B7D334A32F813307B827B7D324A32F813303B827B7D304AD35CFB737B7DBB73FB7D2E4AD25C81
:40158000BB7D1340DBB2002B19D0FB792B4A32F8133019467A8A3B8AD31A994233DAFB7DFA7D2549895CBA7DD243D2B20A40D1B2214AD154BB7B2249FA7BCA5423E0FB7992
:4015C0001E4A32F8133019467A8A3B8A1344994215DDBB7B1A4AD35C012B08D8FB7DFA7D1549895CBA7D0A43D1B2134AD154BB7B134AD25C013AD1B2114AD15403E0BB7B22
:401600000F49FA7BCA54FB7D0B4AD25CBB7D1340DBB2002B01D0012300E0002318461C37BD4680BC704700BFEC1D0000DC80FF1FE480FF1FE880FF1FBC81FF1FB081FF1FEE
:401640007481FF1F80B584B000AF0346FB71FB790F4AD35CFB73FB790E4AD25CFB7B13447B730023BB73FB7B1846FFF763FF0346002B01D00123BB73FB7B0133FB73FA7BCA
:401680007B7B9A42EFD3BB7B18461037BD4680BDF01D0000F41D000080B582B000AF0023BB710023FB710BE0FB791846FFF7CAFF0346002B01D00123BB71FB790133FB7144
:4016C000FB79012BF0D9BB7918460837BD4680BD80B500AF1A4B1B78DBB21846FFF79CFD184B1B78DBB25BB2002B08DA154B1B78DBB223F00103DAB2124B1A701DE0104B1B
:401700001B78DBB21846FFF731FC03461A460C4B1A700B4B1B78DBB2012B06D8084B1B78DBB21846FFF748FD07E0064B1B78DBB223F00103DAB2034B1A7000BF80BD00BF64
:40174000A881FF1FA981FF1F80B584B000AF78607B681B78FB73FB7B314AD35CBB73FB7B7A685278D1B22F4AD154BB7B7A689278D1B22D4AD1547B68DA78D2B21B79DBB25A
:401780001B021343BB81BB7BBA89120211B2BA89120A92B212B20A4312B291B2234A22F813107B685A79D2B29B79DBB21B021343BB81BB7BBA89120211B2BA89120A92B248
:4017C00012B20A4312B291B2194A22F813107B68DA79D2B21B7ADBB21B021343BB81BB7BBA89120211B2BA89120A92B212B20A4312B291B20F4A22F81310BB7B7A68527A21
:40180000D1B20D4AD154FB7B7A68927AD1B20B4AD154FFF7B3FD00BF1037BD4680BD00BFEC1D0000D080FF1FD480FF1FDC80FF1FE080FF1FE480FF1FE880FF1FD880FF1F3E
:4018400080B483B000AF78607B6804221A707B685A7800225A709A78002242F01E029A707B6801221A747B685A7C00225A749A7C002242F02B029A7400BF0C37BD4680BC93
:40188000704700BF80B485B000AF786000BF7B681B78DBB2042BFAD10023FB7348E0FB7BFA7B294931F81220120211B2FA7B264830F81220120A92B212B20A4312B291B209
:4018C0007A685B0013440A46A3F80320FB7BFA7B1E4931F81220120211B2FA7B1B4830F81220120A92B212B20A4312B291B27A685B0013440A46A3F80720FB7BFA7B14492A
:4019000031F81220120211B2FA7B114830F81220120A92B212B20A4312B291B27A6804335B0013440A46A3F80320FB7B0133FB73FB7B012BB3D97B6884221A7000BF143799
:40194000BD4680BC704700BFAC81FF1FB481FF1FB081FF1F80B584B000AF78607B685A78D2B29B78DBB21B021343FB81FB891B021AB2FB891B0A9BB21BB213431BB20C4A64
:40198000934211D17B681333BB60B868FFF7DCFE7B685A7800225A709A78002242F01E029A707B6800221A7400BF1037BD4680BD1E80FFFF80B500AF002000F049F8154A02
:4019C000144B1B78DBB243F02003DBB21370114A104B1B78DBB223F00403DBB213700D4A0C4B1B78DBB243F00803DBB213700A4A094B1B78DBB223F01803DBB21370064A90
:401A0000054B1B78DBB243F01003DBB2137000BF80BD00BF42580040D75A004080B400AF094A094B1B78DBB243F00403DBB21370064A064B1B78DBB243F00403DBB21370DB
:401A400000BFBD4680BC7047A7430040B743004080B483B000AF0346FB711749164B1B78DBB25BB223F003035AB297F9073003F003035BB213435BB2DBB20B70FB79012B97
:401A80000AD10E4B0E4A1278D2B21A700D4B0E4A1278D2B21A7009E0084B0C4A1278D2B21A70084B0A4A1278D2B21A7000BF0C37BD4680BC704700BF425800403446004006
:401AC000120100493546004016010049B1010049B901004980B500AF0E4B14221A700E4B00221A700C4A0C4B1B78DBB243F00403DBB21370084A084B1B78DBB243F002035B
:401B0000DBB21370002000F023F800F091F800BF80BD00BF285800402958004080B400AF094A094B1B78DBB243F00403DBB21370064A064B1B78DBB243F00403DBB21370B6
:401B400000BFBD4680BC7047A8430040B843004080B483B000AF0346FB710C4A0B4B1B78DBB223F00203DBB213700849074B1B78DAB2FB7903F00203DBB21343DBB20B7072
:401B800000BF0C37BD4680BC704700BF2858004080B582B000AF0346FB710C4A0B4B1B78DBB223F00403DBB213700849074B1B78DAB2FB7903F00403DBB21343DBB20B70D2
:401BC00000F036F800BF0837BD4680BD2958004080B582B000AF0346FB710C4A0B4B1B78DBB223F00C03DBB213700849074B1B78DAB2FB7903F00C03DBB21343DBB20B70DC
:401C000000F016F800BF0837BD4680BD2858004080B483B000AF0346FB71044AFB79137000BF0C37BD4680BC704700BF825B004080B483B000AF104B1B78DBB203F00C0331
:401C40005B08FB710D4B1B78DBB203F00403DBB2002B02D0FB790133FB71094AFB7903F1924303F594731B78DBB2137000BF0C37BD4680BC704700BF28580040295800401B
:401C80000A46004080B500AF00F002F800BF80BD80B582B000AF0023FB7106E0FB791846FEF738FBFB790133FB71FB79042BF5D900BF0837BD4680BD80B400AF094A094BF8
:401CC0001B78DBB243F00103DBB21370064A064B1B78DBB243F00103DBB2137000BFBD4680BC7047A2430040B2430040014B1868704700BF4C81FF1F0E4B70B51E460E4CFD
:401D00000025E41AA410A54204D056F8253098470135F8E700F070F8084B094C1E46E41AA4100025A54204D056F8253098470135F8E770BD041E0000041E0000041E00005A
:401D40000C1E000010B5431E0A44914204D011F8014B03F8014FF8E710BD03460244934202D003F8011BFAE770470000000000000C5100400C510040035B0040D35A0040A8
:401D8000935A00402040010110000000C84900401900305100404000F0510040100000000140001000140140000800400140000A004C01400002005001402000055000407A
:401DC000065000400000000020400000065200400E520040165200401E520040265200402E520040365200407E520040000100000001000001014300F8B500BFF8BC08BCE2
:401E00009E4670474D00000085050000F8B500BFF8BC08BC9E46704729000000301E0000C880FF1F8800000078000000000000000000000001000000C8C80000FFFF000045
:401E40000B0B000064003200140014000A000A00050500000000000000000000000000000000000000000000000000000000000000000000F61D000000000000000000005D
:401E800000000000000000000000000000000000000000000000000000000000000000000000000000000000000000000000000000000000EC80FF1F000000000000000098
:401EC00000000000000000000000000000000000000000000000000000000000000000000000000000000000000000000000000000000000000000000000000000000000E2
:401F000000000000000000000000000000000000000000000000000000000000000000000000000000000000000000000000000000000000000000000000000000000000A1
:401F40000000000000000000000000000000000000000000000000000000000000000000000000000000000000000000000000000000000000000000000000000000000061
:401F80000000000000000000000000000000000000000000000000000000000000000000000000000000000000000000000000000000000000000000000000000000000021
:020000040003F7
:0200000480007A
:4000000004520040096400400101014001030140390801402C090140560A0140310B01403E0C01401F0D0140010F0140031501400117014001190140031B014006400140A3
:400040000341014002420140014301400245014005460140044701400348014010490140084C0140064D01400350014002510140066011026001640308FF0AFF0BFF18FF68
:400080001BFF28FF2BFF8B1F8D0DE601E60101030201040105030602081709040A280C2C0D010E12120113041402160118381A041B031C031D0222102408250426202A02C9
:4000C0002B032C032D04303032033303340C35043F04402341044660470248185207580459045A045B045F01610C62F0630C650C670C6840694C6A406B4C6C906D586F0CB9
:40010000044005160D200E220F80160117151C401D151F122404253027202F1A369037013D203E043F81472A57286F1592049301940499029A019B0A9D159F10A291A34080
:40014000A720B001B504B601B701C0F0C2F0C4F0CA70CCB0CEF0D0E00002140124013002340138203E014062450446504702481949FF4AFF4BFF4C024D204F055110560897
:4001800058045A045B0C5F016040614062806480668081788210849F851F8780889F8D2A8F0190229499962698979A489B7F9C1E9D559E81A004A220A760AA10AC01AE8077
:4001C000B060B106B280B301B410B5E0B60FB718BE01BF55C034C105C560C602C806D602D804D904DA04DB04DE08DF01E10CE2F0E30CE50CE70CE840E94CEA40EB4CEC903D
:40020000ED58EF0C000205150B200E260F8010201541175018081A401D021E2625082602270A2F2036903D083E043F814004450A48284D034E825008531057405A40630155
:40024000774079407C0494089D04AB80B448C078C2F4C4D4CA40CC30CED0D0C4D214D608D808DE48EC044060410249FF4AFF4BFF4DA04F0450185A045D015F01604062C06E
:400280006440654066C068C06AC06CC06EC092019A069B01A501A60CAA02B002B208B401B604B701BE01C020C106C5D1C702C813C9FFCAFFCBFFCDAFCE0FCF04D018D2805C
:4002C000D405D804D904DA04DB04DC11DD11DF01E040E2C0E440E540E6C0E8C0EAC0ECC0EEC009020A0810201204184419081A081B802240290830204004460448284901CF
:400300004E0450085204580859015A80710281049408C20AC406CA02CC04D024D224D60B8004E008E401EA05E608E608E008E401EA05318070048004CC10DC80E680818078
:40034000A580E6803E10CE2096105301D40101103980AB01C002CE08B110B540EA01EC0885089610E6101220164075087B02822086409908A302AA10AB02C430DC80DE2036
:40038000E010E480EAA01280132016207B107F408680C40EDE03831087409780A710AA20AB2000030C010E02000303C0000060000000000003000000030003000003000052
:4003C0000002000000000000000B0B00000000000002020002008000000000000000000000000000000000000000000000000000000000000000000000000000000000005F
:4004000000000000000000000000000000000000000000000000000000000000000000000000000000000000000000000000000000000000000000000000000000000000BC
:40044000000000000000000000000000000000000000000000000000000000000000000000000000000000000000000000000000000000000000000000000000000000007C
:40048000000000000000000000000000000000000000000000000000000000000000000000000000000000000000000000000000000000000000000000000000000000003C
:4004C00000000000000000000000000000000000000000000000000000000000000000000000000000000000000000000000000000000000000000000000000000000000FC
:0200000490006A
:0400000000004005B7
:0200000490105A
:04000000BC90ACAF55
:0200000490303A
:0200000031DBF2
:0200000490402A
:4000000000000000000000000000000000000000000000000000000000000000000000000000000000000000000000000000000000000000000000000000000000000000C0
:400040000000000000000000000000000000000000000000000000000000000000000000000000000000000000000000000000000000000000000000000000000000000080
:400080000000000000000000000000000000000000000000000000000000000000000000000000000000000000000000000000000000000000000000000000000000000040
:4000C0000000000000000000000000000000000000000000000000000000000000000000000000000000000000000000000000000000000000000000000000000000000000
:0200000490501A
:0C00000000012E16106900012E2342445E
:00000001FF